:100000000C9448010C9472010C9472010C947201CE
:100010000C946C290C946C290C946C290C946C290C
:100020000C9472010C9472010C9472010C94720184
:100030000C9472010C9472010C9472010C94720174
:100040000C9472010C9472010C94EA2A0C947201C3
:100050000C944B2E0C94812E0C9472010C94720112
:100060000C9472010C9472010C9472010C94720144
:100070000C9472010C9472010C9472010C94720134
:100080000C9472010C9472010C9472016364696E99
:100090006F70737578585B004E414E494E49545904
:1000A000494E46CDCCCC3D0AD7233C17B7D1387743
:1000B000CC2B329595E6241FB14F0A000020410059
:1000C00000C84200401C4620BCBE4CCA1B0E5AAEA3
:1000D000C59D74457865637574696E67205269675C
:1000E000687420536964652052657475726E20438C
:1000F0006C65616E696E6700457865637574696EDD
:1001000067204C6566742053696465205265747578
:10011000726E20436C65616E696E6700446F636B3D
:100120002069732061742072696768742073696440
:100130006500446F636B206973206174206C656691
:1001400074207369646500746F7069635F737065B0
:1001500065645F62727573685F656570726F6D5F0D
:1001600076616C75653A2000746F7069635F7269BF
:100170006768745F656570726F6D5F76616C7565D9
:100180003A2000746F7069635F6C6566745F6565C3
:1001900070726F6D5F76616C75653A2000746F7078
:1001A00069635F73706565645F656570726F6D5FCD
:1001B00076616C75653A2000746F7069635F74696D
:1001C0006D6572335F656570726F6D5F76616C75BA
:1001D000653A2000746F7069635F74696D6572328F
:1001E0005F656570726F6D5F76616C75653A200052
:1001F000746F7069635F74696D6572315F65657096
:10020000726F6D5F76616C75653A200000000002C8
:1002100003000A0B000000000504090800000000AC
:1002200000000000000000000000000001020408BF
:1002300010204080010204081020408001020408C0
:1002400010204080010204081020408002020202B7
:10025000020202020404040404040404030303036A
:10026000030303030101010101010101000020005A
:1002700023002600290000002200250028002B0072
:1002800000002100240027002A008716B52E5F17E2
:1002900011241FBECFEFD0E4DEBFCDBF1CE0A0E035
:1002A000B1E0E2E0FFE700E00BBF02C007900D9273
:1002B000A437B107D9F720E1A4E7BCE001C01D9243
:1002C000AE3AB207E1F711E0C7E4D1E004C02197EC
:1002D000FE010E94C134C534D107C9F70E94023320
:1002E0000C94743F0C9400000F931F93CF93DF93F3
:1002F00000D0CDB7DEB781E090E09093360F8093C9
:10030000350F67EC7CE08BE090E10E945F2F1A8252
:10031000198264E471E087EC9CE00E9450370097FA
:1003200071F19E012F5F3F4F3F932F9327E431E000
:100330003F932F939F938F930E94DF378C010F90F1
:100340000F900F900F900F900F900197C1F462E5FE
:1003500071E08BE090E10E945F2F69817A814AE031
:1003600050E08BE090E10E945E3089819A81803A72
:1003700020E1920759F41093720F0093710F0F90C0
:100380000F90DF91CF911F910F9108958B3E20E147
:10039000920729F410932E0F00932D0FF0CF873F73
:1003A00020E1920709F041C01092700F10926F0F78
:1003B0001092680F1092670F10926A0F1092690FD7
:1003C0001092440F1092430F1092500F10924F0F43
:1003D0001092520F1092510F10924C0F10924B0F1F
:1003E00010924E0F10924D0F1092300F10922F0F4F
:1003F00010923E0F10923D0F1092380F1092370F4F
:1004000010923A0F1092390F10923C0F10923B0F3E
:1004100010936E0F00936D0F1093240F0093230F12
:1004200010932A0F0093290FAACF813C23E1920752
:1004300029F41093620F0093610FA1CF823B23E157
:10044000920729F41093600F00935F0F98CF8738BD
:1004500020E1920749F410935E0F00935D0F109313
:10046000220F0093210FDCCF883820E1920729F476
:1004700010935C0F00935B0FF2CF893820E1920755
:1004800079F481E090E090935A0F8093590F909304
:10049000220F8093210F90932A0F8093290F6FCF03
:1004A000833626E1920739F481E090E09093580F6B
:1004B0008093570FECCF843626E1920739F481E020
:1004C00090E09093560F8093550FE1CF853626E14B
:1004D000920739F481E090E09093540F8093530F8A
:1004E000D6CF8E3E20E1920719F51092700F109230
:1004F0006F0F1092680F1092670F10926A0F109290
:10050000690F1092440F1092430F1092300F109207
:100510002F0F81E090E090936E0F80936D0F90937A
:10052000520F8093510F9093200F80931F0FB3CFE2
:100530008F3E20E1920719F51092700F10926F0F05
:100540001092680F1092670F10926A0F1092690F45
:100550001092440F1092430F1092300F10922F0FF1
:1005600081E090E090936E0F80936D0F9093500F09
:1005700080934F0F90931E0F80931D0F8CCF8C3E56
:1005800020E1920719F51092700F10926F0F1092E0
:10059000680F1092670F10926A0F1092690F1092F5
:1005A000440F1092430F1092300F10922F0F81E0E2
:1005B00090E090936E0F80936D0F90934E0F809309
:1005C0004D0F90931C0F80931B0F65CF8D3E20E144
:1005D000920719F51092700F10926F0F1092680F1A
:1005E0001092670F10926A0F1092690F1092440FC9
:1005F0001092430F1092300F10922F0F81E090E075
:1006000090936E0F80936D0F90934C0F80934B0FD0
:1006100090931A0F8093190F3ECF8F3421E19207E8
:1006200059F481E090E090934A0F8093490F9093A2
:10063000180F8093170F2FCF803521E1920759F4BF
:1006400081E090E09093480F8093470F9093160FAE
:100650008093150F20CF8D3425E1920739F481E086
:1006600090E090932C0F80932B0F89CE833425E15B
:10067000920729F410922C0F10922B0F80CE813507
:1006800021E1920759F481E090E09093460F809326
:10069000450F9093140F8093130FFDCE8D3724E1F7
:1006A000920739F481E090E09093780F8093770F70
:1006B00066CE8D33904169F481E090E09093440FD1
:1006C0008093430F64E671E08BE090E10E94842FF9
:1006D00056CE6CE771E08BE090E10E945F2F4FCE29
:1006E000FF920F931F93CF93DF93EC01F62E0881B7
:1006F0001981C8010E94533FF81621F06F2DC801DF
:100700000E945B3FCE01DF91CF911F910F91FF902F
:100710000895AF92BF92CF92DF92EF92FF920F9324
:100720001F93CF93DF9300D0CDB7DEB78C015B0171
:10073000FB01E480F5809A8389836E2DCE010196BA
:100740000E947003D12CC12C0F5F1F4FFF24CE14C9
:10075000DF0494F4B601C5010E94923298012C0D79
:100760003D1D3A832983682FCE0101960E947003B4
:10077000FFEFCF1ADF0AEBCFC701800F911F0F9059
:100780000F90DF91CF911F910F91FF90EF90DF902D
:10079000CF90BF90AF9008954F925F926F927F92EB
:1007A0008F929F92AF92BF92CF92DF92EF92FF9281
:1007B0000F931F93CF93DF9300D000D000D0CDB71D
:1007C000DEB75C014B014DB65EB60E94533F082F69
:1007D00010E0C80101962DB73EB7281B390B0FB6A4
:1007E000F8943EBF0FBE2DBF8DB79EB701966C012A
:1007F00075015C0137019FEF691A790AEFEFEE1A74
:10080000FE0AC5018C199D09801791073CF4C701A8
:100810000E94533FF50181935F01F0CFF601E00F95
:10082000F11F1082B601CE0101960E94FA30BE017E
:100830006F5F7F4FC4010E94BA31CE0101960E94C2
:100840008B30C801860D971D0FB6F8945EBE0FBEA3
:100850004DBE26960FB6F894DEBF0FBECDBFDF911A
:10086000CF911F910F91FF90EF90DF90CF90BF90AD
:10087000AF909F908F907F906F905F904F90089572
:1008800084E79CE00E94712890E0089563EB7CE08F
:1008900084E690E00E94CC0364E670E080E090E0A3
:1008A0000E94652B6DEA7CE082E890E00E94CC0318
:1008B00064E670E080E090E00E94652B67EA7CE0EF
:1008C00080EA90E00E94CC0364E670E080E090E073
:1008D0000E94652B65E97CE082ED90E00E94CC03EC
:1008E00064E670E080E090E00E94652B61EA7CE0C5
:1008F00080EF90E00E94CC0364E670E080E090E03E
:100900000E94652B6BE97CE08EE091E00E94CC03B5
:1009100064E670E080E090E00E94652B6FE87CE088
:100920008EEB90E00E94CC0364E670E080E090E003
:100930000E94652B8FE89CE00E94E9327093410190
:100940006093400185E99CE00E94E93270933F0189
:1009500060933E0160EF71E08BE090E10E942D2FEB
:1009600063EB7CE08BE090E10E94722F64ED71E01C
:100970008BE090E10E942D2F6DEA7CE08BE090E10E
:100980000E94722F68EB71E08BE090E10E942D2FA6
:1009900067EA7CE08BE090E10E94722F6DE971E0E4
:1009A0008BE090E10E942D2F65E97CE08BE090E1E7
:1009B0000E94722F63E871E08BE090E10E942D2F7E
:1009C00061EA7CE08BE090E10E94722F68E671E0C2
:1009D0008BE090E10E942D2F6BE97CE08BE090E1B1
:1009E0000E94722F67E471E08BE090E10E942D2F4E
:1009F0006FE87CE08BE090E10E94722F6EEA71E07C
:100A00008BE090E10E945F2F84E79CE00E94202809
:100A10004AE050E0BC018BE090E10E9484306AE83B
:100A200079E08BE090E10E945F2F84E79CE00E94D8
:100A300071284AE050E0682F8BE090E10E947D3001
:100A400062EC71E08BE090E10C94842FCF93DF9304
:100A5000EC016FEB7CE00E94643281110CC0BE019E
:100A60008BE090E10E94722FBE018FEB9CE0DF9142
:100A7000CF910C94A331DF91CF910895CF93DF9361
:100A800000D000D000D0CDB7DEB765EC71E0CE016C
:100A900001960E94FA30CE0101960E942605CE01F1
:100AA00001960E948B3026960FB6F894DEBF0FBEDB
:100AB000CDBFDF91CF910895CF92DF92EF92FF9259
:100AC0000F931F930E94342B0091DB0E1091DC0ECC
:100AD0002091DD0E3091DE0E6B017C01C01AD10A2F
:100AE000E20AF30A00911A0110911B0120911C01E6
:100AF00030911D01C016D106E206F30640F12091A7
:100B0000C50C211124C06093DB0E7093DC0E809322
:100B1000DD0E9093DE0E8091330F9091340F892B70
:100B200089F481E090E09093340F8093330F6091CB
:100B3000330F86E01F910F91FF90EF90DF90CF90E1
:100B40000C94E52C1092340F1092330FF0CF1F91BC
:100B50000F91FF90EF90DF90CF900895CF92DF92AA
:100B6000EF92FF920F931F93CF93DF930E94342B4A
:100B70000091CF0E1091D00E2091D10E3091D20E57
:100B80006B017C01C01AD10AE20AF30A00910E013E
:100B900010910F012091100130911101C016D10662
:100BA000E206F30660F06093CF0E7093D00E809350
:100BB000D10E9093D20E1092360F1092350FC09135
:100BC000350FD091360FC130D10509F041C00E94D8
:100BD000342B0091D30E1091D40E2091D50E30916C
:100BE000D60E6B017C01C01AD10AE20AF30A009109
:100BF0001201109113012091140130911501C016BA
:100C0000D106E206F30620F16093D30E7093D40E62
:100C10008093D50E9093D60E8091330F9091340F20
:100C2000892B89F4D093340FC093330F6091330F25
:100C300086E0DF91CF911F910F91FF90EF90DF90B1
:100C4000CF900C94E52C1092340F1092330FEECF0E
:100C5000DF91CF911F910F91FF90EF90DF90CF9098
:100C60000895CF92DF92EF92FF920F931F93CF934D
:100C7000DF93C091310FD091320FC130D105A9F56A
:100C80000E94342B0091CB0E1091CC0E2091CD0EF2
:100C90003091CE0E6B017C01C01AD10AE20AF30A30
:100CA00000910A0110910B0120910C0130910D016E
:100CB000C016D106E206F306C0F06093CB0E709327
:100CC000CC0E8093CD0E9093CE0E8091330F9091E9
:100CD000340F892B09F04CC0D093340FC093330FDD
:100CE0006091330F87E00E94E52C8091310F909145
:100CF000320F892B09F041C00E94342B0091CB0E9A
:100D00001091CC0E2091CD0E3091CE0E6B017C0156
:100D1000C01AD10AE20AF30A00910A0110910B01EC
:100D200020910C0130910D01C016D106E206F306A8
:100D300020F16093CB0E7093CC0E8093CD0E9093E8
:100D4000CE0E8091330F9091340F019721F41092C1
:100D5000340F1092330F6091330F87E0DF91CF9102
:100D60001F910F91FF90EF90DF90CF900C94E52CA6
:100D70001092340F1092330FB3CFDF91CF911F91A8
:100D80000F91FF90EF90DF90CF90089569E87CE09D
:100D90008CE291E00E94CC0389E89CE00E94E93259
:100DA000709337016093360163E87CE08AE491E058
:100DB0000E94CC0383E89CE00E94E93270933501E5
:100DC0006093340108950F931F93CF93DF9300D066
:100DD00000D000D0CDB7DEB76091F30E7091F40E65
:100DE0004AE0CE0101960E941931CE0101960E947F
:100DF0002605CE0101960E948B306AEC71E0CE018F
:100E000001960E94FA30CE0101960E942605CE017D
:100E100001960E948B3065E97CE082ED90E00E94B3
:100E2000CC0385E99CE00E94E93270933F01609316
:100E30003E016FE87CE08EEB90E00E94CC038FE8EF
:100E40009CE00E94E932709341016093400181E08F
:100E500090E09093320F8093310F90937C0F8093AA
:100E60007B0F82E5809342012A9829980091F70E22
:100E70001091F80E809140019091410108171907D7
:100E8000A4F4B80183E00E94F92B4AE050E0B801D5
:100E90008BE090E10E945E306FE070E080E090E0D7
:100EA0000E94652B0F5F1F4FE5CF9093F80E809344
:100EB000F70E64E670E080E090E00E94652B009100
:100EC000F90E1091FA0E80913E0190913F010817A2
:100ED0001907A4F4B80184E00E94F92B4AE050E01D
:100EE000B8018BE090E10E945E306AE070E080E043
:100EF00090E00E94652B0F5F1F4FE5CF9093FA0E95
:100F00008093F90E26960FB6F894DEBF0FBECDBFC4
:100F1000DF91CF911F910F9108950F931F93CF935E
:100F2000DF9300D000D000D0CDB7DEB76091F30ED4
:100F30007091F40E4AE0CE0101960E941931CE0163
:100F400001960E942605CE0101960E948B3066ED27
:100F500071E0CE0101960E94FA30CE0101960E9406
:100F60002605CE0101960E948B3065E97CE082ED7A
:100F700090E00E94CC0385E99CE00E94E9327093E6
:100F80003F0160933E016FE87CE08EEB90E00E94B1
:100F9000CC038FE89CE00E94E9327093410160939A
:100FA000400181E090E09093320F8093310F909355
:100FB0007A0F8093790F8CE4809342012A9A299AC0
:100FC0000091F70E1091F80E80914001909141012F
:100FD00008171907A4F4B80183E00E94F92B4AE02E
:100FE00050E0B8018BE090E10E945E306FE070E06D
:100FF00080E090E00E94652B0F5F1F4FE5CF90933C
:10100000F80E8093F70E64E670E080E090E00E94B6
:10101000652B0091F90E1091FA0E80913E0190918E
:101020003F0108171907A4F4B80184E00E94F92BC6
:101030004AE050E0B8018BE090E10E945E306AE047
:1010400070E080E090E00E94652B0F5F1F4FE5CFBE
:101050009093FA0E8093F90E26960FB6F894DEBFA1
:101060000FBECDBFDF91CF911F910F910895CF9308
:10107000DF9365E97CE082ED90E00E94CC0385E996
:101080009CE00E94E93270933F0160933E016FE85B
:101090007CE08EEB90E00E94CC038FE89CE00E9405
:1010A000E932709341016093400183E580934201EE
:1010B00070E060E084E00E94F92B1092FA0E10922A
:1010C000F90E64E670E080E090E00E94652BC0912C
:1010D000F70ED091F80E1C161D069CF4BE0183E09D
:1010E0000E94F92B4AE050E0BE018BE090E10E94A3
:1010F0005E3064E170E080E090E00E94652B219713
:10110000EACF1092F80E1092F70E1092320F109252
:10111000310FDF91CF9108950F931F93CF93DF93FA
:1011200000D000D000D0CDB7DEB761EE71E0CE01C7
:1011300001960E94FA30CE0101960E942605CE014A
:1011400001960E948B3065E97CE082ED90E00E9480
:10115000CC0385E99CE00E94E93270933F016093E3
:101160003E0180913C0190913D019093410180931B
:10117000400181E090E09093320F8093310F82E53F
:10118000809342012A9829980091F70E1091F80E49
:1011900080913C0190913D0108171907A4F4B80112
:1011A00083E00E94F92B4AE050E0B8018BE090E127
:1011B0000E945E306AE070E080E090E00E94652B63
:1011C0000F5F1F4FE5CF9093F80E8093F70E64E604
:1011D00070E080E090E00E94652B0091F90E109184
:1011E000FA0E80913E0190913F0108171907A4F46F
:1011F000B80184E00E94F92B4AE050E0B8018BE08E
:1012000090E10E945E306AE070E080E090E00E9431
:10121000652B0F5F1F4FE5CF9093FA0E8093F90E69
:1012200026960FB6F894DEBF0FBECDBFDF91CF91EB
:101230001F910F9108950F931F93CF93DF9300D0C9
:1012400000D000D0CDB7DEB76CEE71E0CE010196D4
:101250000E94FA30CE0101960E942605CE01019629
:101260000E948B3065E97CE082ED90E00E94CC0327
:1012700085E99CE00E94E93270933F0160933E0152
:1012800080913C0190913D019093410180934001F8
:1012900081E090E09093320F8093310F8CE4809343
:1012A00042012A9A299A0091F70E1091F80E809126
:1012B0003C0190913D0108171907A4F4B80183E09F
:1012C0000E94F92B4AE050E0B8018BE090E10E94C7
:1012D0005E306AE070E080E090E00E94652B0F5F76
:1012E0001F4FE5CF9093F80E8093F70E64E670E001
:1012F00080E090E00E94652B0091F90E1091FA0EAB
:1013000080913E0190913F0108171907A4F4B8019C
:1013100084E00E94F92B4AE050E0B8018BE090E1B4
:101320000E945E306AE070E080E090E00E94652BF1
:101330000F5F1F4FE5CF9093FA0E8093F90E26961C
:101340000FB6F894DEBF0FBECDBFDF91CF911F91D6
:101350000F910895CF93DF9300D000D000D0CDB788
:10136000DEB766EF71E0CE0101960E94FA30BE0151
:101370006F5F7F4F82ED90E00E948903CE0101965E
:101380000E948B306AEF71E0CE0101960E94FA3024
:10139000CE0101960E942605CE0101960E948B3057
:1013A00026960FB6F894DEBF0FBECDBFDF91CF916A
:1013B0000895CF93DF9300D000D000D0CDB7DEB733
:1013C00067E172E0CE0101960E94FA30BE016F5FC4
:1013D0007F4F82ED90E00E948903CE0101960E942A
:1013E0008B306BE172E0CE0101960E94FA30CE01A3
:1013F00001960E942605CE0101960E948B3026960A
:101400000FB6F894DEBF0FBECDBFDF91CF91089528
:10141000CF93DF9300D000D000D0CDB7DEB76BE321
:1014200072E0CE0101960E94FA30BE016F5F7F4FDD
:1014300082ED90E00E948903CE0101960E948B30DC
:101440006FE372E0CE0101960E94FA30CE01019660
:101450000E942605CE0101960E948B3026960FB67B
:10146000F894DEBF0FBECDBFDF91CF910895CF932B
:10147000DF9300D000D000D0CDB7DEB76DE572E0CD
:10148000CE0101960E94FA30BE016F5F7F4F8EEB56
:1014900090E00E948903CE0101960E948B3061E6A4
:1014A00072E0CE0101960E94FA30CE0101960E94B0
:1014B0002605CE0101960E948B3026960FB6F89431
:1014C000DEBF0FBECDBFDF91CF910895CF93DF93E5
:1014D00000D000D000D0CDB7DEB76EE772E0CE010D
:1014E00001960E94FA30BE016F5F7F4F8EEB90E055
:1014F0000E948903CE0101960E948B3062E872E05F
:10150000CE0101960E94FA30CE0101960E94260576
:10151000CE0101960E948B3026960FB6F894DEBF5E
:101520000FBECDBFDF91CF910895CF93DF9300D051
:1015300000D000D0CDB7DEB762EA72E0CE010196EE
:101540000E94FA30BE016F5F7F4F8EEB90E00E94E9
:101550008903CE0101960E948B3066EA72E0CE01CB
:1015600001960E94FA30CE0101960E942605CE0116
:1015700001960E948B3026960FB6F894DEBF0FBE00
:10158000CDBFDF91CF910895CF93DF9300D000D0EE
:1015900000D0CDB7DEB78091470F9091480F0197EB
:1015A000A1F56DEC73E0CE0101960E94FA30BE0108
:1015B0006F5F7F4F80EF90E00E948903CE0101961C
:1015C0000E948B306FE572E0CE0101960E94FA30E6
:1015D000BE016F5F7F4F8EE091E00E948903CE01D4
:1015E00001960E948B301092480F1092470F64ECC6
:1015F00072E0CE0101960E94FA30CE0101960E945F
:101600002605CE0101960E948B3026960FB6F894DF
:10161000DEBF0FBECDBFDF91CF910895CF93DF9393
:1016200000D000D000D0CDB7DEB78091450F9091AB
:10163000460F0197A1F56FE572E0CE0101960E9479
:10164000FA30BE016F5F7F4F80EF90E00E94890308
:10165000CE0101960E948B306DEC73E0CE010196B5
:101660000E94FA30BE016F5F7F4F8EE091E00E94D2
:101670008903CE0101960E948B301092460F109282
:10168000450F6CED72E0CE0101960E94FA30CE015A
:1016900001960E942605CE0101960E948B30269667
:1016A0000FB6F894DEBF0FBECDBFDF91CF91089586
:1016B0000F931F93CF93DF9300D000D000D0CDB70E
:1016C000DEB720917F0F3091800F80917D0F909138
:1016D0007E0F2115310509F041C18130910509F0D6
:1016E00092C02091690F30916A0F2115310509F0E0
:1016F00042C04091750F5091760F452BE1F5109245
:10170000500F10924F0F1092520F1092510F1092D3
:101710004C0F10924B0F10924E0F10924D0F1092D3
:10172000300F10922F0F10923E0F10923D0F10921B
:10173000380F1092370F10923A0F1092390F109203
:101740003C0F10923B0F90936E0F80936D0F109291
:10175000440F1092430F90936C0F80936B0F9093F4
:10176000680F8093670F90931C0F80931B0F9093CB
:101770002A0F8093290F232B09F048C08091750F01
:101780009091760F8130910509F040C01092500F72
:1017900010924F0F1092520F1092510F10924C0F47
:1017A00010924B0F10924E0F10924D0F1092300F5F
:1017B00010922F0F10923E0F10923D0F1092380F83
:1017C0001092370F10923A0F1092390F10923C0F6F
:1017D00010923B0F90936E0F80936D0F1092440FF9
:1017E0001092430F90936C0F80936B0F9093660F42
:1017F0008093650F90931C0F80931B0F90932A0F7B
:101800008093290F03C0892B09F43CC18091670F95
:101810009091680F019781F48091830F9091840FCC
:10182000892B51F410926E0F10926D0F10926C0F65
:1018300010926B0F0E948D078091670F9091680F37
:101840000197C9F40091830F1091840F01301105A5
:1018500091F40E94370810936E0F00936D0F109251
:10186000680F1092670F1093120F0093110F1093CF
:101870002A0F0093290F8091690F90916A0F0197A9
:1018800081F48091810F9091820F892B51F41092F5
:101890006E0F10926D0F10926C0F10926B0F0E94D2
:1018A000E3068091690F90916A0F0197C9F4009146
:1018B000810F1091820F0130110591F40E943708B9
:1018C00010936E0F00936D0F10926A0F1092690FB4
:1018D0001093120F0093110F10932A0F0093290FEA
:1018E0008091830F9091840F019769F50091810F8A
:1018F0001091820F0130110531F510936E0F009396
:101900006D0F10926C0F10926B0F1092680F109267
:10191000670F10926A0F1092690F1093020F0093D5
:10192000010F63E173E0CE0101960E94FA30CE010F
:1019300001960E942605CE0101960E948B301093DD
:101940002A0F0093290F26960FB6F894DEBF0FBE1C
:10195000CDBFDF91CF911F910F910895892B09F091
:1019600055CF2130310509F051CF8091670F90910B
:10197000680F009709F042C04091750F5091760FA3
:10198000452BE1F51092500F10924F0F1092520F0D
:101990001092510F10924C0F10924B0F10924E0F4D
:1019A00010924D0F1092300F10922F0F10923E0F89
:1019B00010923D0F1092380F1092370F10923A0F7D
:1019C0001092390F10923C0F10923B0F30936E0F14
:1019D00020936D0F1092440F1092430F30936C0FB1
:1019E00020936B0F30936A0F2093690F30931A0F77
:1019F0002093190F30932A0F2093290F892B09F078
:101A000005CF8091750F9091760F8130910509F087
:101A1000FDCE1092500F10924F0F1092520F109255
:101A2000510F10924C0F10924B0F10924E0F1092BC
:101A30004D0F1092300F10922F0F10923E0F1092F8
:101A40003D0F1092380F1092370F10923A0F1092EC
:101A5000390F10923C0F10923B0F90936E0F8093B2
:101A60006D0F1092440F1092430F90936C0F809360
:101A70006B0F9093640F8093630F90931A0F809372
:101A8000190FBCCE01E010E010936E0F00936D0FA4
:101A900010936C0F00936B0F65EF72E0CE0101960F
:101AA0000E94FA30CE0101960E942605CE010196D1
:101AB0000E948B301092680F1092670F10926A0F7D
:101AC0001092690F1093060F0093050F10932A0FC1
:101AD0000093290F9BCE80914F0F9091500F01974B
:101AE00011F58091810F9091820F892BE1F4809103
:101AF0002F0F9091300F892BB1F480916B0F909143
:101B00006C0F892B81F480916F0F9091700F892B4E
:101B100051F41092440F1092430F10926E0F1092D6
:101B20006D0F0E948C0880914F0F9091500F01977C
:101B300049F58091810F9091820F8130910511F5C7
:101B400020912F0F3091300F232BE1F420916B0F58
:101B500030916C0F232BB1F420916F0F3091700FE7
:101B6000232B81F490936E0F80936D0F1092500F82
:101B700010924F0F9093120F8093110F90932A0F92
:101B80008093290F8091510F9091520F019711F579
:101B90008091830F9091840F892BE1F480912F0F16
:101BA0009091300F892BB1F480916B0F90916C0F55
:101BB000892B81F480916F0F9091700F892B51F4D4
:101BC0001092440F1092430F10926E0F10926D0FEF
:101BD0000E941B098091510F9091520F019749F576
:101BE0008091830F9091840F8130910511F52091A0
:101BF0002F0F3091300F232BE1F420916B0F309198
:101C00006C0F232BB1F420916F0F3091700F232BA9
:101C100081F490936E0F80936D0F1092520F10927B
:101C2000510F9093120F8093110F90932A0F80936E
:101C3000290F80914B0F90914C0F019711F58091D6
:101C4000810F9091820F892BE1F480912F0F909159
:101C5000300F892BB1F480916B0F90916C0F892B11
:101C600081F480916F0F9091700F892B51F4109235
:101C7000440F1092430F10926E0F10926D0F0E943E
:101C8000E30680914B0F90914C0F019749F580919D
:101C9000810F9091820F8130910511F520912F0FC6
:101CA0003091300F232BE1F420916B0F30916C0FAA
:101CB000232BB1F420916F0F3091700F232B81F4FF
:101CC00090936E0F80936D0F10924C0F10924B0FEC
:101CD0009093120F8093110F90932A0F8093290FE6
:101CE00080914D0F90914E0F019711F58091830FC8
:101CF0009091840F892BE1F480912F0F9091300FF8
:101D0000892BB1F480916B0F90916C0F892B81F42A
:101D100080916F0F9091700F892B51F41092440FA6
:101D20001092430F10926E0F10926D0F0E948D074C
:101D300080914D0F90914E0F019749F58091830F3F
:101D40009091840F8130910511F520912F0F3091E2
:101D5000300F232BE1F420916B0F30916C0F232B6C
:101D6000B1F420916F0F3091700F232B81F4909379
:101D70006E0F80936D0F10924E0F10924D0F909337
:101D8000120F8093110F90932A0F8093290F0895BB
:101D90000F931F93CF93DF9300D000D000D0CDB727
:101DA000DEB70091490F10914A0F0130110509F07B
:101DB00093C080916B0F90916C0F892B09F08CC0B0
:101DC00010936E0F00936D0F0E9437081093300F21
:101DD00000932F0F1092440F1092430F1092700F28
:101DE00010926F0F10924E0F10924D0F10924C0FD9
:101DF00010924B0F1092520F1092510F1092500FE1
:101E000010924F0F61EA7CE080EF90E00E94CC03DB
:101E10006BE97CE08EE091E00E94CC036DEC73E016
:101E200081EA9CE00E947532882331F16FE572E00F
:101E30008BE99CE00E9475328823F1F010926E0FBE
:101E400010926D0F67E373E0CE0101960E94FA30A5
:101E5000CE0101960E942605CE0101960E948B308C
:101E600010933E0F00933D0F1092380F1092370FD2
:101E700010924A0F1092490F6FE572E081EA9CE0E0
:101E80000E947532882341F16DEC73E08BE99CE090
:101E90000E947532882301F16CE473E0CE01019653
:101EA0000E94FA30CE0101960E942605CE010196CD
:101EB0000E948B3010926E0F10926D0F10923E0F99
:101EC00010923D0F81E090E09093380F8093370F90
:101ED00010924A0F1092490F80913D0F90913E0F42
:101EE000019701F58091830F9091840F892BD1F494
:101EF00080912F0F9091300F0197A1F410926E0FE7
:101F000010926D0F62E673E0CE0101960E94FA30E6
:101F1000CE0101960E942605CE0101960E948B30CB
:101F20000E941B0980913D0F90913E0F019799F5FA
:101F30008091830F9091840F019769F500912F0F85
:101F40001091300F0130110531F562E773E0CE01D9
:101F500001960E94FA30CE0101960E942605CE011C
:101F600001960E948B3010936E0F00936D0F1092AC
:101F70003E0F10923D0F1092300F10922F0F1093C2
:101F8000100F00930F0F10932A0F0093290F109337
:101F9000440F0093430F8091370F9091380F0197B2
:101FA00001F58091810F9091820F892BD1F480915E
:101FB0002F0F9091300F0197A1F410926E0F109295
:101FC0006D0F62E873E0CE0101960E94FA30CE01F7
:101FD00001960E942605CE0101960E948B300E9438
:101FE0008C088091370F9091380F019799F5809167
:101FF000810F9091820F019769F500912F0F109139
:10200000300F0130110531F562E773E0CE01019622
:102010000E94FA30CE0101960E942605CE0101965B
:102020000E948B3010936E0F00936D0F1092380F3B
:102030001092370F1092300F10922F0F10930E0F37
:1020400000930D0F10932A0F0093290F1093440F44
:102050000093430F26960FB6F894DEBF0FBECDBF98
:10206000DF91CF911F910F9108950F931F93CF93FD
:10207000DF9300D000D000D0CDB7DEB780912D0F18
:1020800090912E0F019781F480916F0F9091700FB6
:10209000019751F463E973E08BE090E10E94842F93
:1020A00010922E0F10922D0F00912D0F10912E0FC8
:1020B0000130110509F0EFC080916B0F90916C0F0A
:1020C000892B09F0E8C080912F0F9091300F892B58
:1020D00009F0E1C080916F0F9091700F892B09F08A
:1020E000DAC01092440F1092430F61EA7CE080EF57
:1020F00090E00E94CC036BE97CE08EE091E00E94CE
:10210000CC036DEC73E081EA9CE00E947532882379
:1021100009F45BC06FE572E08BE99CE00E947532C8
:10212000882309F452C062E371E0CE0101960E9457
:10213000EF31CE0101960E942605CE0101960E9444
:102140008B301092500F10924F0F1092520F10922E
:10215000510F10924C0F10924B0F10924E0F109285
:102160004D0F10923E0F10923D0F1092380F1092AB
:10217000370F10923A0F1092390F10923C0F1092B5
:102180003B0F1092680F1092670F10926A0F109217
:10219000690F1093420F0093410F1092400F10925D
:1021A0003F0F10922E0F10922D0F10926E0F109263
:1021B0006D0F1093700F00936F0F1093260F009305
:1021C000250F10932A0F0093290F6FE572E081EA23
:1021D0009CE00E947532882309F45DC06DEC73E0C9
:1021E0008BE99CE00E947532882309F454C06CE1AD
:1021F00071E0CE0101960E94EF31CE0101960E945E
:102200002605CE0101960E948B301092500F10923D
:102210004F0F1092520F1092510F10924C0F1092BC
:102220004B0F10924E0F10924D0F10923E0F1092C6
:102230003D0F1092380F1092370F10923A0F1092F4
:10224000390F10923C0F10923B0F1092680F1092B2
:10225000670F10926A0F1092690F1092420F10923E
:10226000410F81E090E09093400F80933F0F1092D8
:102270006E0F10926D0F10922E0F10922D0F9093E3
:10228000700F80936F0F9093260F8093250F90937C
:102290002A0F8093290F8091410F9091420F01974F
:1022A000F9F48091370F9091380F892BC9F4809100
:1022B0003B0F90913C0F892B99F480916F0F909177
:1022C000700F8130910561F490933A0F8093390F2C
:1022D00010923E0F10923D0F1092420F1092410F3C
:1022E0008091390F90913A0F20913F0F3091400F1C
:1022F0002130310509F047C1009709F044C18091B0
:102300003D0F90913E0F892B99F480916F0F909122
:10231000700F8130910561F41092380F1092370FD1
:1023200090933C0F80933B0F1092400F10923F0F01
:102330008091390F90913A0F019729F58091810F83
:102340009091820F0197F9F400916F0F1091700F27
:1023500001301105C1F462E773E0CE0101960E94DD
:10236000FA30CE0101960E942605CE0101960E9408
:102370008B300E94370810923A0F1092390F109349
:102380003E0F00933D0F80913D0F90913E0F0197BE
:1023900091F48091830F9091840F892B61F4809147
:1023A0006F0F9091700F019731F410926E0F109291
:1023B0006D0F0E948D0780913D0F90913E0F019708
:1023C000B9F58091830F9091840F019789F5009161
:1023D0006F0F1091700F0130110551F562E773E036
:1023E000CE0101960E94FA30CE0101960E94260588
:1023F000CE0101960E948B3010936E0F00936D0FEB
:1024000010923E0F10923D0F1092700F10926F0FAE
:102410001092420F1092410F1092400F10923F0FF6
:102420001093120F0093110F10932A0F0093290F8E
:1024300080913B0F90913C0F0197D1F48091830FD5
:102440009091840F892BA1F480916F0F9091700F60
:10245000019771F410923A0F1092390F10923E0FBB
:1024600010923D0F10926E0F10926D0F0E948D070B
:1024700080913B0F90913C0F019729F58091830F3C
:102480009091840F0197F9F400916F0F1091700FE4
:1024900001301105C1F40E94370862E773E0CE01F4
:1024A00001960E94FA30CE0101960E942605CE01C7
:1024B00001960E948B301093380F0093370F1092C3
:1024C0003C0F10923B0F8091370F9091380F01977E
:1024D00091F48091810F9091820F892B61F480910A
:1024E0006F0F9091700F019731F410926E0F109250
:1024F0006D0F0E94E3068091370F9091380F01977E
:10250000B9F58091810F9091820F019789F5009123
:102510006F0F1091700F0130110551F562E773E0F4
:10252000CE0101960E94FA30CE0101960E94260546
:10253000CE0101960E948B3010936E0F00936D0FA9
:102540001092380F1092370F1092700F10926F0F79
:102550001092420F1092410F1092400F10923F0FB5
:102560001093120F0093110F10932A0F0093290F4D
:1025700026960FB6F894DEBF0FBECDBFDF91CF9188
:102580001F910F910895019709F0D2CE8091810F8C
:102590009091820F892B09F0CBCE80916F0F909193
:1025A000700F019709F0C4CE1092380F1092370FB8
:1025B00010923C0F10923B0F0E94E306B9CE0F938E
:1025C0001F93CF93DF9300D000D000D0CDB7DEB7FC
:1025D0000091430F1091440F0130110509F052C0D2
:1025E00080912F0F9091300F892B09F04BC0809173
:1025F0006B0F90916C0F892B09F044C080916F0F85
:102600009091700F892BF1F561EA7CE080EF90E00A
:102610000E94CC036BE97CE08EE091E00E94CC0349
:102620006DEC73E081EA9CE00E947532882381F0B2
:102630006FE572E08BE99CE00E947532882341F0DF
:1026400010933E0F00933D0F1092380F1092370FEA
:102650006FE572E081EA9CE00E947532882391F078
:102660006DEC73E08BE99CE00E947532882351F099
:1026700010923E0F10923D0F81E090E09093380F42
:102680008093370F80913D0F90913E0F019791F508
:102690008091830F9091840F892B61F58091430F76
:1026A0009091440F019731F580912F0F9091300F49
:1026B000892B01F580916B0F90916C0F892BD1F4D0
:1026C00080916F0F9091700F892BA1F410926E0F73
:1026D00010926D0F60EB73E0CE0101960E94FA300C
:1026E000CE0101960E942605CE0101960E948B30F4
:1026F0000E941B0980913D0F90913E0F019759F563
:102700008091830F9091840F019729F58091430F59
:102710009091440F81309105F1F420912F0F309169
:10272000300F232BC1F420916B0F30916C0F232BB2
:1027300091F420916F0F3091700F232B61F49093DF
:102740006E0F80936D0F10923E0F10923D0F1092FE
:102750004A0F1092490F8091370F9091380F0197CF
:1027600091F58091810F9091820F892B61F5809175
:10277000430F9091440F019731F580912F0F909165
:10278000300F892B01F580916B0F90916C0F892B85
:10279000D1F480916F0F9091700F892BA1F410925A
:1027A0006E0F10926D0F60EB73E0CE0101960E94E8
:1027B000FA30CE0101960E942605CE0101960E94B4
:1027C0008B300E948C088091370F9091380F0197C1
:1027D00099F58091810F9091820F019769F5809111
:1027E000430F9091440F8130910531F520912F0FC7
:1027F0003091300F232B01F520916B0F30916C0F2E
:10280000232BD1F420916F0F3091700F232BA1F463
:1028100090936E0F80936D0F1092380F1092370FB8
:1028200010924A0F1092490F9093040F8093030F58
:1028300090932A0F8093290F26960FB6F894DEBF47
:102840000FBECDBFDF91CF911F910F9108950F93D0
:102850001F93CF93DF9300D000D000D0CDB7DEB769
:102860008091630F9091640F0091650F1091660F36
:102870000130110509F4D8C1019709F0CAC180914E
:10288000650F9091660F892B09F056C00091630F78
:102890001091640F0130110509F04EC063ED70E036
:1028A000CE0101960E94EF31CE0101960E942605CD
:1028B000CE0101960E948B301092500F10924F0F54
:1028C0001092520F1092510F10924C0F10924B0F0A
:1028D00010924E0F10924D0F10923E0F10923D0F1E
:1028E0001092380F1092370F10923A0F1092390F42
:1028F00010923C0F10923B0F1092680F1092670FCE
:1029000010926A0F1092690F1092420F1092410FAD
:102910001093400F00933F0F10926E0F10926D0FA7
:1029200010922E0F10922D0F1093700F00936F0FB7
:102930001092640F1092630F8091410F9091420F9B
:102940000197F9F48091370F9091380F892BC9F4D2
:1029500080913B0F90913C0F892B99F480916F0FE0
:102960009091700F8130910561F490933A0F8093AC
:10297000390F10923E0F10923D0F1092420F10929D
:10298000410F8091390F90913A0F20913F0F309174
:10299000400F2130310509F099C1009709F096C127
:1029A00080913D0F90913E0F892B99F480916F0F8C
:1029B0009091700F8130910561F41092380F109250
:1029C000370F90933C0F80933B0F1092400F109263
:1029D0003F0F8091390F90913A0F019729F580911F
:1029E000810F9091820F0197F9F400916F0F109170
:1029F000700F01301105C1F462E773E0CE0101965A
:102A00000E94FA30CE0101960E942605CE01019661
:102A10000E948B300E94370810923A0F1092390FA3
:102A200010933E0F00933D0F80913D0F90913E0F0C
:102A3000019791F48091830F9091840F892B61F419
:102A400080916F0F9091700F019731F410926E0F7B
:102A500010926D0F0E948D0780913D0F90913E0F57
:102A60000197B9F58091830F9091840F019789F5B3
:102A700000916F0F1091700F0130110551F562E751
:102A800073E0CE0101960E94FA30CE0101960E94B9
:102A90002605CE0101960E948B3010936E0F009395
:102AA0006D0F10923E0F10923D0F1092700F10920A
:102AB0006F0F1092420F1092410F1092400F109220
:102AC0003F0F1093120F0093110F10932A0F0093D2
:102AD000290F80913B0F90913C0F0197D1F4809189
:102AE000830F9091840F892BA1F480916F0F9091A7
:102AF000700F019771F410923A0F1092390F1092E3
:102B00003E0F10923D0F10926E0F10926D0F0E94AB
:102B10008D0780913B0F90913C0F019729F5809193
:102B2000830F9091840F0197F9F400916F0F10912A
:102B3000700F01301105C1F40E94370862E773E09D
:102B4000CE0101960E94FA30CE0101960E94260520
:102B5000CE0101960E948B301093380F0093370FEF
:102B600010923C0F10923B0F8091370F9091380FCD
:102B7000019791F48091810F9091820F892B61F4DC
:102B800080916F0F9091700F019731F410926E0F3A
:102B900010926D0F0E94E3068091370F9091380FCD
:102BA0000197B9F58091810F9091820F019789F576
:102BB00000916F0F1091700F0130110551F562E710
:102BC00073E0CE0101960E94FA30CE0101960E9478
:102BD0002605CE0101960E948B3010936E0F009354
:102BE0006D0F1092380F1092370F1092700F1092D5
:102BF0006F0F1092420F1092410F1092400F1092DF
:102C00003F0F1093120F0093110F10932A0F009390
:102C1000290F26960FB6F894DEBF0FBECDBFDF9109
:102C2000CF911F910F910895892B09F028CE68EF5D
:102C300070E0CE0101960E94EF31CE0101960E9414
:102C40002605CE0101960E948B301092500F1092F3
:102C50004F0F1092520F1092510F10924C0F109272
:102C60004B0F10924E0F10924D0F10923E0F10927C
:102C70003D0F1092380F1092370F10923A0F1092AA
:102C8000390F10923C0F10923B0F1092680F109268
:102C9000670F10926A0F1092690F1093420F009302
:102CA000410F1092400F10923F0F10922E0F109272
:102CB0002D0F10926E0F10926D0F1093700F0093E6
:102CC0006F0F1092660F1092650FD9CD019709F022
:102CD00080CE8091810F9091820F892B09F079CE5F
:102CE00080916F0F9091700F019709F072CE109242
:102CF000380F1092370F10923C0F10923B0F0E942A
:102D0000E30667CEE091850FF091860F099467E3A3
:102D100079E088EB9FE00E94FA3067E379E082EB8C
:102D20009FE00E94FA3065EC73E08CEA9FE00E941D
:102D3000FA306FEC73E086EA9FE00E94FA3020E000
:102D40004AE064E187E89FE00E94432A0E94342B16
:102D50006093EF0E7093F00E8093F10E9093F20E4D
:102D60000E94342B6093EB0E7093EC0E8093ED0E6B
:102D70009093EE0E0E94342B6093E70E7093E80E52
:102D80008093E90E9093EA0E0E94342B6093E30E39
:102D90007093E40E8093E50E9093E60E0E94342B20
:102DA0006093DF0E7093E00E8093E10E9093E20E3D
:102DB0000E94342B6093DB0E7093DC0E8093DD0E4B
:102DC0009093DE0E0E94342B6093D70E7093D80E32
:102DD0008093D90E9093DA0E0E94342B6093D30E19
:102DE0007093D40E8093D50E9093D60E0E94342B00
:102DF0006093CF0E7093D00E8093D10E9093D20E2D
:102E00000E94342B6093CB0E7093CC0E8093CD0E2A
:102E10009093CE0E0E94342B6093C70E7093C80E11
:102E20008093C90E9093CA0E67E379E08FEB9CE024
:102E30000E94FA306DED73E089EB9CE00E94FA305D
:102E400067E379E083EB9CE00E94FA3067E379E086
:102E50008DEA9CE00E94FA3067E379E087EA9CE023
:102E60000E94FA3067E379E081EA9CE00E94FA3040
:102E700067E379E08BE99CE00E94FA3067E379E050
:102E800085E99CE00E94FA3067E379E08FE89CE0F6
:102E90000E94FA3067E379E089E89CE00E94FA300A
:102EA00067E379E083E89CE00E94FA3027E04CE198
:102EB00054E364E079E284E79CE00C94E22783E841
:102EC0009CE00E948B3089E89CE00E948B308FE868
:102ED0009CE00E948B3085E99CE00E948B308BE95E
:102EE0009CE00E948B3081EA9CE00E948B3087EA54
:102EF0009CE00E948B308DEA9CE00E948B3083EB3B
:102F00009CE00E948B3089EB9CE00E948B308FEB21
:102F10009CE00E948B3087E89FE00E94E82986EAC7
:102F20009FE00E948B308CEA9FE00E948B3082EB06
:102F30009FE00E948B3088EB9FE00C948B304F9287
:102F40005F926F927F92AF92BF92CF92DF92EF9299
:102F5000FF920F931F93CF93DF93CDB7DEB7FD881A
:102F6000EE88E7ECFCE080E092E0DF019C011D923E
:102F700021503040E1F78E01095E1F4F1F930F93E0
:102F8000EF92FF9287E89FE09F938F930E949B2F81
:102F90001F930F93EF92FF928BE090E19F938F939B
:102FA0000E949B2F68EC70E080E090E00E94652B0F
:102FB0000E94342B0FB6F894DEBF0FBECDBF10E0D9
:102FC00000E02B01770F66087708CB88DC880D2C92
:102FD000000CEE08FF0887E89FE00E9415291816EC
:102FE0001906CCF487E89FE00E947F285801BFEFC4
:102FF000AB1ABB0AF801E953F34F8083682F8BE0CB
:1030000090E10E94672F62E070E080E090E00E9413
:10301000652B8501E0CF69897A8987EC9CE00E9465
:103020005037892BE1F40E94342B64197509860905
:1030300097096C157D058E059F0568F290E080E08C
:10304000DF91CF911F910F91FF90EF90DF90CF9084
:10305000BF90AF907F906F905F904F90089581E008
:1030600090E0EECF0F931F93CF93DF93CDB7DEB7F2
:103070002C970FB6F894DEBF0FBECDBF68EE73E09D
:10308000CE0101960E94FA30CE0101960E942605DB
:10309000CE0101960E948B3089E094E09F938F933C
:1030A0001F9284E68F938EE094E09F938F930E940B
:1030B0009F170F900F900F900F900F900F90892BEC
:1030C00009F44BC281E08093C60C86E194E09F93A3
:1030D0008F9303E00F9318EE1F9384E294E09F9385
:1030E0008F930E949F1782E394E09F938F930F9397
:1030F0001F938AE494E09F938F930E949F178DE51E
:1031000094E09F938F930F931F9387E694E09F9390
:103110008F930E949F170FB6F894DEBF0FBECDBFEE
:10312000892BC9F16EEC7CE0CE0107960E94FA3043
:1031300024E030E050E040E0BE01695F7F4FCE0107
:1031400001960E94A332CE0101960E94FF320E9496
:10315000173370933901609338016EE674E08BE0A9
:1031600090E10E945F2F60913801709139014AE02F
:1031700050E08BE090E10E94573062E874E08BE011
:1031800090E10E94842FCE0101960E948B30CE01E7
:1031900007960E948B3086E894E09F938F9303E01C
:1031A0000F9318EE1F9387E994E09F938F930E94EB
:1031B0009F1785EA94E09F938F930F931F9383EB60
:1031C00094E09F938F930E949F178EEB94E09F93C0
:1031D0008F930F931F9386ED94E09F938F930E949C
:1031E0009F178CED94E09F938F930F931F9384EF21
:1031F00094E09F938F930E949F178AEF94E09F9390
:103200008F930F931F9382E195E09F938F930E947A
:103210009F1788E195E09F938F930F931F9380E30F
:1032200095E09F938F930E949F170FB6F894DEBF8F
:103230000FBECDBF86E395E09F938F930F931F93AF
:103240008EE495E09F938F930E949F1784E595E00D
:103250009F938F930F931F938CE695E09F938F938B
:103260000E949F1782E795E09F938F930F931F9380
:103270008AE895E09F938F930E949F1780E995E0DD
:103280009F938F930F931F9386EA95E09F938F935D
:103290000E949F178DEA95E09F938F930F931F9342
:1032A00085EC95E09F938F930E949F178CEC95E09F
:1032B0009F938F930F931F9384EE95E09F938F932B
:1032C0000E949F170FB6F894DEBF0FBECDBF8BEEE6
:1032D00095E09F938F930F931F9383E096E09F93C6
:1032E0008F930E949F178AE096E09F938F930F938E
:1032F0001F938EE196E09F938F930E949F1785E224
:1033000096E09F938F930F931F938DE396E09F9387
:103310008F930E949F1784E496E09F938F930F935F
:103320001F9380E596E09F938F930E949F1789E5F6
:1033300096E09F938F930F931F938AE696E09F9357
:103340008F930E949F1783E796E09F938F930F932D
:103350001F9381E896E09F938F930E949F170FB66B
:10336000F894DEBF0FBECDBF8CE896E09F938F939D
:103370000F931F938FEB96E09F938F930E949F175D
:103380008CEC96E09F938F930F931F938EED96E0B6
:103390009F938F930E949F1788EE96E09F938F9341
:1033A0000F931F9384EF96E09F938F930E949F1734
:1033B0008DEF96E09F938F930F931F9384E197E097
:1033C0009F938F930E949F1788E297E09F938F931C
:1033D0000F931F9385E397E09F938F930E949F170E
:1033E0008FE397E09F938F930F931F938BE497E066
:1033F0009F938F930E949F170FB6F894DEBF0FBE66
:10340000CDBF84E597E09F938F930F931F9383E63F
:1034100097E09F938F930E949F1780E797E09F9379
:103420008F930F931F938FE797E09F938F930E9443
:103430009F178CE897E09F938F930F931F938EE9CC
:1034400097E09F938F930E949F176EEA77E0CE01DB
:1034500001960E94FA30CE0101960E942605CE0107
:1034600001960E948B3085EC97E09F938F930F938A
:103470001F938DEC97E09F938F930E949F1767EDAA
:1034800077E0CE0101960E94FA30CE0101960E94AB
:103490002605CE0101960E948B308BED97E09F931D
:1034A0008F930F931F9384EE97E09F938F930E94C7
:1034B0009F170FB6F894DEBF0FBECDBF892BA9F1C1
:1034C0006DEC7CE0CE0107960E94FA3024E030E0FB
:1034D00050E040E0BE01695F7F4FCE0101960E943F
:1034E000A332CE0101960E94FF3220E030E04AE78D
:1034F00054E40E94FF330E94173370933B016093A2
:103500003A014AE050E08BE090E10E9457306AEEC9
:1035100077E08BE090E10E94842FCE0101960E941B
:103520008B30CE0107960E948B3081E08093C50CD2
:1035300061E086E00E94E52C81E090E09093740FBA
:103540008093730F2C960FB6F894DEBF0FBECDBFDD
:10355000DF91CF911F910F9108951092C60C6EEEDE
:1035600077E0CE0101960E94FA30CE0101960E94CA
:103570002605CE0101960E948B3084E690E0A0E003
:10358000B0E080931A0190931B01A0931C01B093AB
:103590001D011092740F1092730FD4CF0F931F93CD
:1035A000CF93DF9300D000D000D0CDB7DEB78091AD
:1035B000C60C882309F483C08091C50C882309F4C4
:1035C0007EC063E078E0CE0101960E94FA30CE0121
:1035D00001960E942605CE0101960E948B308CE256
:1035E00098E09F938F930EE20F9310EE1F9386E364
:1035F00098E09F938F930E949F170F900F900F90CA
:103600000F900F900F90892B09F487C01092C50C72
:103610006CE478E0CE0101960E94FA30CE0101966A
:103620000E942605CE0101960E948B3068E873E166
:1036300080E090E00E94652B86E798E09F938F934F
:103640000F931F9382E898E09F938F930E949F1798
:103650000F900F900F900F900F900F90892BD1F13A
:103660000E9474016EE878E0CE0101960E94FA3063
:10367000CE0101960E942605CE0101960E948B3054
:1036800085EC98E09F938F9307E20F9310E11F93CF
:1036900081ED98E09F938F930E949F1786ED98E0AD
:1036A0009F938F930F931F938FED98E09F938F932A
:1036B0000E949F170FB6F894DEBF0FBECDBF2696AF
:1036C0000FB6F894DEBF0FBECDBFDF91CF911F9133
:1036D0000F91089565EE78E0CE0101960E94FA30D0
:1036E000CE0101960E942605CE0101960E948B30E4
:1036F00086ED98E09F938F9387E28F9380E18F937D
:103700008FED98E09F938F930E949F170F900F90DB
:103710000F900F900F900F90D2CF85EC97E09F9372
:103720008F9383E08F9388EE8F9387E199E09F9347
:103730008F930E949F1763E279E0CE0101960E9469
:10374000FA30CE0101960E942605CE0101960E9414
:103750008B30DCCF0F931F93CF93DF9300D000D03B
:1037600000D0CDB7DEB726E040E855E260E070E07B
:103770008BE090E10E94F32D40E855E260E070E0BC
:1037800087E89FE00E946E2A68E379E0CE01019607
:103790000E94FA30CE0101960E942605CE010196C4
:1037A0000E948B3060E579E0CE0101960E94FA30EC
:1037B000CE0101960E942605CE0101960E948B3013
:1037C00084B18E6184B981B1887781B98AB1806C06
:1037D0008AB98AB18F7C8AB987B18C6087B98BB17D
:1037E00080638BB983E090E05E9A2FEF31EE44E086
:1037F000215030404040E1F700C000005E982FEFBC
:1038000031EE44E0215030404040E1F700C000007C
:10381000019751F768E579E0CE0101960E94FA30F0
:10382000CE0101960E942605CE0101960E948B30A2
:1038300062E779E0CE0101960E94FA306CEA7FE0FF
:10384000CE0101960E942432BC018BE090E10E94DF
:10385000722FCE0101960E948B306DE779E0CE0188
:1038600001960E94FA3066EA7FE0CE0101960E943E
:103870002432BC018BE090E10E94722FCE010196B0
:103880000E948B300E9446040E9432180E94CE1A79
:1038900060913A0170913B0110E000E02AE939E9BA
:1038A00041E251E484E79CE00E94EB276AE070E08B
:1038B00080E090E00E94652B60913A0170913B019D
:1038C0004AE050E08BE090E10E945E306EEA71E0E9
:1038D0008BE090E10E945F2F84E79CE00E9420280B
:1038E0004AE050E0BC018BE090E10E94843068E83F
:1038F00079E08BE090E10E945F2F84E79CE00E94DA
:1039000071284AE050E0682F8BE090E10E947D3002
:1039100062EC71E08BE090E10E94842F0E94C60669
:1039200026960FB6F894DEBF0FBECDBFDF91CF91C4
:103930001F910F9108950F931F93CF93DF93CDB7EE
:10394000DEB7C658D1090FB6F894DEBF0FBECDBFA3
:103950006DE879E08E010F5F1F4FC8010E94FA30B9
:10396000C8010E942605C8010E948B3065E97CE0F1
:1039700082ED90E00E94CC0385E99CE00E94E93250
:1039800060933E0170933F017F936F938BE999E0C1
:103990009F938F931F930F930E94AF371F930F93A3
:1039A00087E28F9380E18F9382E898E09F938F93D3
:1039B0000E949F170FB6F894DEBF0FBECDBF892BB4
:1039C00071F00E943E05CA57DF4F0FB6F894DEBF74
:1039D0000FBECDBFDF91CF911F910F9108956AEA7D
:1039E00079E0CE018F579F4F0E94FA30CE018F575A
:1039F0009F4F0E942605CE018F579F4F0E948B300C
:103A0000E2CF0F931F93CF93DF93CDB7DEB7C658A6
:103A1000D1090FB6F894DEBF0FBECDBF6BEB79E0D6
:103A20008E010F5F1F4FC8010E94FA30C8010E942B
:103A30002605C8010E948B306FE87CE08EEB90E099
:103A40000E94CC038FE89CE00E94E9326093400121
:103A5000709341017F936F9389EC99E09F938F93CB
:103A60001F930F930E94AF371F930F9387E28F939B
:103A700080E18F9382E898E09F938F930E949F1735
:103A80000FB6F894DEBF0FBECDBF892B71F00E9438
:103A90003E05CA57DF4F0FB6F894DEBF0FBECDBF4D
:103AA000DF91CF911F910F9108956AEA79E0CE01DD
:103AB0008F579F4F0E94FA30CE018F579F4F0E9421
:103AC0002605CE018F579F4F0E948B30E2CFEF9299
:103AD000FF920F931F93CF93DF93CDB7DEB7C658F6
:103AE000D1090FB6F894DEBF0FBECDBF0E944004CF
:103AF0008C011F938F9388ED99E09F938F939E0184
:103B00002F5F3F4F79013F932F930E94AF37FF9272
:103B1000EF9287E28F9380E18F9385EE99E09F93F8
:103B20008F930E949F170FB6F894DEBF0FBECDBFD4
:103B300065EC71E0892B11F46AEA79E0CE018F57C8
:103B40009F4F0E94FA30CE018F579F4F0E9426054B
:103B5000CE018F579F4F0E948B30E090730FF090F3
:103B6000740F31E0E316F10409F04BC08091FD0EB3
:103B70009091FE0E892B09F044C00A3011050CF01B
:103B800040C084E79CE00E9471284AE050E0682F22
:103B90008BE090E10E947D3060EF79E0CE018F579D
:103BA0009F4F0E94FA30CE018F579F4F0E942605EB
:103BB000CE018F579F4F0E948B3010922C0F109286
:103BC0002B0F1092700F10926F0F1092680F1092BF
:103BD000670F10926A0F1092690F10924C0F10929B
:103BE0004B0F10924E0F10924D0FF0924A0FE09231
:103BF000490FF0920C0FE0920B0FF092FE0EE09244
:103C0000FD0E8091730F9091740F892B91F5101612
:103C100011067CF165E47AE0CE018F579F4F0E9438
:103C2000FA30CE018F579F4F0E942605CE018F5745
:103C30009F4F0E948B3010922C0F10922B0F1092DE
:103C4000680F1092670F10926A0F1092690F81E04F
:103C500090E090936E0F80936D0F1092080F10926A
:103C6000070F1092180F1092170F90930C0F80935C
:103C70000B0FCA57DF4F0FB6F894DEBF0FBECDBF94
:103C8000DF91CF911F910F91FF90EF9008950F93C7
:103C90001F93CF93DF93CDB7DEB7CC58D1090FB6C2
:103CA000F894DEBF0FBECDBF8091F40E8F9380914C
:103CB000F30E8F938091F60E8F938091F50E8F9374
:103CC00089E99AE09F938F938E010F5F1F4F1F9397
:103CD0000F930E94AF371F930F9387E28F9380E17A
:103CE0008F9385EE99E09F938F930E949F170FB655
:103CF000F894DEBF0FBECDBF65EC71E0892B11F4E7
:103D00006AEA79E0CE018F579F4F0E94FA30CE01C8
:103D10008F579F4F0E942605CE018F579F4F0E94BD
:103D20008B3064EF71E080E090E00E94652B8DE5C0
:103D300094E09F938F9383E08F9388EE8F9387E631
:103D400094E09F938F930E949F170F900F900F9076
:103D50000F900F900F90892BA1F16DEC7CE0CE01BC
:103D600089579F4F0E94FA3024E030E050E040E055
:103D7000BE0169577F4FCE018F579F4F0E94A332DC
:103D8000CE018F579F4F0E94FF3220E030E04AE77C
:103D900054E40E94FF330E941733709339016093FB
:103DA00038014AE050E08BE090E10E945E30CE01A5
:103DB0008F579F4F0E948B30CE0189579F4F0E9493
:103DC0008B30C457DF4F0FB6F894DEBF0FBECDBFA8
:103DD000DF91CF911F910F9108958F929F92AF9293
:103DE000BF92CF92DF92EF92FF920F931F93CF93E8
:103DF000DF9300D000D000D0CDB7DEB70091290FFF
:103E000010912A0F0130110569F50E94342BC090E2
:103E1000EB0ED090EC0EE090ED0EF090EE0E4B011C
:103E20005C018C189D08AE08BF08C0902A01D09094
:103E30002B01E0902C01F0902D018C149D04AE0418
:103E4000BF0480F06093EB0E7093EC0E8093ED0E48
:103E50009093EE0E1093280F0093270F10922A0FC5
:103E60001092290F8091270F9091280F019709F048
:103E7000DCC380910B0F90910C0F019771F58BEAC9
:103E80009AE09F938F9387E28F9380E18F9382E8EC
:103E900098E09F938F930E949F170F900F900F9021
:103EA0000F900F900F9065EC71E0892B11F46AEA86
:103EB00079E0CE0101960E94FA30CE0101960E946F
:103EC0002605CE0101960E948B3010920C0F1092A5
:103ED0000B0F1092280F1092270F8091070F9091CF
:103EE000080F019771F588EB9AE09F938F9387E213
:103EF0008F9380E18F9382E898E09F938F930E9445
:103F00009F170F900F900F900F900F900F9065ECF0
:103F100071E0892B11F46AEA79E0CE0101960E94E2
:103F2000FA30CE0101960E942605CE0101960E942C
:103F30008B301092080F1092070F1092280F1092DA
:103F4000270F8091FF0E9091000F019771F585EC7E
:103F50009AE09F938F9387E28F9380E18F9382E81B
:103F600098E09F938F930E949F170F900F900F9050
:103F70000F900F900F9065EC71E0892B11F46AEAB5
:103F800079E0CE0101960E94FA30CE0101960E949E
:103F90002605CE0101960E948B301092000F1092E0
:103FA000FF0E1092280F1092270F8091090F909109
:103FB0000A0F019771F582ED9AE09F938F9387E244
:103FC0008F9380E18F9382E898E09F938F930E9474
:103FD0009F170F900F900F900F900F900F9065EC20
:103FE00071E0892B11F46AEA79E0CE0101960E9412
:103FF000FA30CE0101960E942605CE0101960E945C
:104000008B3010920A0F1092090F1092280F109205
:10401000270F8091050F9091060F019771F58FED95
:104020009AE09F938F9387E28F9380E18F9385EE41
:1040300099E09F938F930E949F170F900F900F907E
:104040000F900F900F9065EC71E0892B11F46AEAE4
:1040500079E0CE0101960E94FA30CE0101960E94CD
:104060002605CE0101960E948B301092060F109209
:10407000050F1092280F1092270F8091010F909139
:10408000020F019771F58BEE9AE09F938F9387E271
:104090008F9380E18F9385EE99E09F938F930E9499
:1040A0009F170F900F900F900F900F900F9065EC4F
:1040B00071E0892B11F46AEA79E0CE0101960E9441
:1040C000FA30CE0101960E942605CE0101960E948B
:1040D0008B301092020F1092010F1092280F109245
:1040E000270F8091250F9091260F019771F587EF8B
:1040F0009AE09F938F9387E28F9380E18F9382E87A
:1041000098E09F938F930E949F170F900F900F90AE
:104110000F900F900F9065EC71E0892B11F46AEA13
:1041200079E0CE0101960E94FA30CE0101960E94FC
:104130002605CE0101960E948B301092260F109218
:10414000250F1092280F1092270F8091230F909126
:10415000240F019771F584E09BE09F938F9387E292
:104160008F9380E18F9382E898E09F938F930E94D2
:104170009F170F900F900F900F900F900F9065EC7E
:1041800071E0892B11F46AEA79E0CE0101960E9470
:10419000FA30CE0101960E942605CE0101960E94BA
:1041A0008B301092240F1092230F1092280F109230
:1041B000270F8091210F9091220F019771F581E1D6
:1041C0009BE09F938F9387E28F9380E18F9385EE9F
:1041D00099E09F938F930E949F170F900F900F90DD
:1041E0000F900F900F9065EC71E0892B11F46AEA43
:1041F00079E0CE0101960E94FA30CE0101960E942C
:104200002605CE0101960E948B301092220F10924B
:10421000210F1092280F1092270F80911F0F90915D
:10422000200F019771F58DE19BE09F938F9387E2BB
:104230008F9380E18F9385EE99E09F938F930E94F7
:104240009F170F900F900F900F900F900F9065ECAD
:1042500071E0892B11F46AEA79E0CE0101960E949F
:10426000FA30CE0101960E942605CE0101960E94E9
:104270008B301092200F10921F0F1092280F109267
:10428000270F80911D0F90911E0F019771F589E204
:104290009BE09F938F9387E28F9380E18F9385EECE
:1042A00099E09F938F930E949F170F900F900F900C
:1042B0000F900F900F9065EC71E0892B11F46AEA72
:1042C00079E0CE0101960E94FA30CE0101960E945B
:1042D0002605CE0101960E948B3010921E0F10927F
:1042E0001D0F1092280F1092270F80911B0F909195
:1042F0001C0F019771F585E39BE09F938F9387E2F5
:104300008F9380E18F9382E898E09F938F930E9430
:104310009F170F900F900F900F900F900F9065ECDC
:1043200071E0892B11F46AEA79E0CE0101960E94CE
:10433000FA30CE0101960E942605CE0101960E9418
:104340008B3010921C0F10921B0F1092280F10929E
:10435000270F8091190F90911A0F019771F582E440
:104360009BE09F938F9387E28F9380E18F9382E806
:1043700098E09F938F930E949F170F900F900F903C
:104380000F900F900F9065EC71E0892B11F46AEAA1
:1043900079E0CE0101960E94FA30CE0101960E948A
:1043A0002605CE0101960E948B3010921A0F1092B2
:1043B000190F1092280F1092270F8091170F9091CC
:1043C000180F019771F58FE49BE09F938F9387E21D
:1043D0008F9380E18F9382E898E09F938F930E9460
:1043E0009F170F900F900F900F900F900F9065EC0C
:1043F00071E0892B11F46AEA79E0CE0101960E94FE
:10440000FA30CE0101960E942605CE0101960E9447
:104410008B301092180F1092170F1092280F1092D5
:10442000270F8091FB0E9091FC0E019771F58CE5A2
:104430009BE09F938F9387E28F9380E18F9382E835
:1044400098E09F938F930E949F170F900F900F906B
:104450000F900F900F9065EC71E0892B11F46AEAD0
:1044600079E0CE0101960E94FA30CE0101960E94B9
:104470002605CE0101960E948B301092FC0E109200
:10448000FB0E1092280F1092270F80910F0F909122
:10449000100F019771F589E69BE09F938F9387E258
:1044A0008F9380E18F9382E898E09F938F930E948F
:1044B0009F170F900F900F900F900F900F9065EC3B
:1044C00071E0892B11F46AEA79E0CE0101960E942D
:1044D000FA30CE0101960E942605CE0101960E9477
:1044E0008B301092100F10920F0F1092280F109215
:1044F000270F80910D0F90910E0F019771F589E6AE
:104500009BE09F938F9387E28F9380E18F9382E864
:1045100098E09F938F930E949F170F900F900F909A
:104520000F900F900F9065EC71E0892B11F46AEAFF
:1045300079E0CE0101960E94FA30CE0101960E94E8
:104540002605CE0101960E948B3010920E0F10921C
:104550000D0F1092280F1092270F8091110F90913C
:10456000120F019771F586E79BE09F938F9387E287
:104570008F9380E18F9382E898E09F938F930E94BE
:104580009F170F900F900F900F900F900F9065EC6A
:1045900071E0892B11F46AEA79E0CE0101960E945C
:1045A000FA30CE0101960E942605CE0101960E94A6
:1045B0008B301092120F1092110F1092280F109240
:1045C000270F8091030F9091040F019751F583E815
:1045D0009BE09F938F9387E28F9380E18F9385EE8B
:1045E00099E09F938F930E949F170F900F900F90C9
:1045F0000F900F900F9065EC71E0892B11F46AEA2F
:1046000079E0CE0101960E94FA30CE0101960E9417
:104610002605CE0101960E948B301092040F109255
:10462000030F1092280F1092270F26960FB6F894BA
:10463000DEBF0FBECDBFDF91CF911F910F91FF90D5
:10464000EF90DF90CF90BF90AF909F908F900895A4
:104650004F925F926F927F928F929F92AF92BF9292
:10466000CF92DF92EF92FF920F931F93CF93DF933E
:10467000CDB7DEB7C859D1090FB6F894DEBF0FBE6B
:10468000CDBF89B1829581708093830F1092840F82
:1046900089B185FB882780F98093810F1092820F62
:1046A00080B182FB882780F980937F0F1092800F62
:1046B00083B1817080937D0F10927E0F0E94342B06
:1046C0002B013C010E94342B4B015C010E94342BD6
:1046D0006B017C010E94342BC357DF4F68837983C1
:1046E0008A839B83CD58D0400E94342BCF56DF4F16
:1046F000688379838A839B83C159D0400E94342B7D
:10470000CB56DF4F688379838A839B83C559D0401A
:104710000E94580B0E9427140E9435100E94C80E58
:104720000E94DF120E940E0B0E94C40A0E946B0DB1
:104730000E945C050E94AE050E9431060E94ED1E9B
:104740008091DF0E9091E00EA091E10EB091E20E0B
:10475000B301A201481B590B6A0B7B0B80911E0110
:1047600090911F01A0912001B0912101841795071C
:10477000A607B70750F44092DF0E5092E00E609209
:10478000E10E7092E20E0E94CE1A8091C60C882330
:1047900009F440C08091EF0E9091F00EA091F10EBF
:1047A000B091F20EB501A401481B590B6A0B7B0BAB
:1047B00080912E0190912F01A0913001B091310193
:1047C00084179507A607B70750F58092EF0E9092D1
:1047D000F00EA092F10EB092F20E8091C50C8111F4
:1047E0001EC087E399E09F938F9381E08F9384EFBE
:1047F0008F938FE89BE09F938F930E949F170F905A
:104800000F900F900F900F900F90892B09F4AEC36B
:104810000E9474018091C60C882309F476C08091AF
:10482000E70E9091E80EA091E90EB091EA0EB70163
:10483000A601481B590B6A0B7B0B809126019091B6
:104840002701A0912801B091290184179507A60797
:10485000B70708F056C0C092E70ED092E80EE0927B
:10486000E90EF092EA0E0E94671D8CE298E09F9399
:104870008F930EE20F9310EE1F9386E398E09F93C1
:104880008F930E949F170F900F900F900F900F9093
:104890000F90892BB1F11092C50C6CE478E0CE0139
:1048A00001960E94FA30CE0101960E942605CE01A3
:1048B00001960E948B3086E798E09F938F930F9329
:1048C0001F9382E898E09F938F930E949F170F9009
:1048D0000F900F900F900F900F9065EE78E0892B5E
:1048E00021F00E9474016EE878E0CE0101960E94EA
:1048F000FA30CE0101960E942605CE0101960E9453
:104900008B301092FE0E1092FD0E8091C60C882303
:1049100009F447C18091310F9091320F0197E1F571
:104920008091E30E9091E40EA091E50EB091E60E19
:10493000C357DF4F488159816A817B81CD58D04070
:10494000481B590B6A0B7B0B80912201909123012C
:10495000A0912401B091250184179507A607B707F8
:10496000D8F4C357DF4F88819981AA81BB81CD5884
:10497000D0408093E30E9093E40EA093E50EB093A5
:10498000E60E8091C50C811107C00E94471E8091E0
:10499000C60C882309F405C18091C70E9091C80EFA
:1049A000A091C90EB091CA0ECF56DF4F48815981F0
:1049B0006A817B81C159D040481B590B6A0B7B0B24
:1049C0008091060190910701A0910801B091090121
:1049D00084179507A607B70708F0E3C0CF56DF4F47
:1049E00088819981AA81BB81C159D0408093C70E2B
:1049F0009093C80EA093C90EB093CA0E8091C50CB7
:104A00008111CFC08DE594E09F938F9383E08F93C6
:104A100088EE8F9387E694E09F938F930E949F1771
:104A20000F900F900F900F900F900F90892B09F41B
:104A300060C06EEC7CE0CE0189579F4F0E94FA3037
:104A400024E030E050E040E0BE0169577F4FCE01E6
:104A50008F579F4F0E94A332CE018F579F4F0E94C6
:104A6000FF320E94173370933901609338016EE66C
:104A700074E08BE090E10E945F2F609138017091AB
:104A800039014AE050E08BE090E10E94573062E843
:104A900074E08BE090E10E94842F809139018F9324
:104AA000809138018F9380EA9BE09F938F938E01D2
:104AB0000F5F1F4F1F930F930E94AF371F930F93EA
:104AC00087E28F9380E18F9385EE99E09F938F9398
:104AD0000E949F17CE018F579F4F0E948B30CE01AF
:104AE00089579F4F0E948B300FB6F894DEBF0FBEE0
:104AF000CDBF2091380130913901809132019091E0
:104B00003301821793070CF04CC06DEA7BE08BE019
:104B100090E10E945F2F1092700F10926F0F109211
:104B2000680F1092670F10926A0F1092690F10921F
:104B3000440F1092430F1092500F10924F0F10928B
:104B4000520F1092510F10924C0F10924B0F109267
:104B50004E0F10924D0F1092300F10922F0F109297
:104B60004A0F1092490F10923E0F10923D0F109273
:104B7000380F1092370F10923A0F1092390F10928F
:104B80003C0F10923B0F81E090E090936E0F80936A
:104B90006D0F9093000F8093FF0E90932A0F8093D8
:104BA000290F80916D0F90916E0F019711F40E9463
:104BB00037088091610F9091620F019731F40E9444
:104BC0009B1C1092620F1092610F80915F0F909169
:104BD000600F019731F40E94011D1092600F109236
:104BE0005F0F80915D0F90915E0F019731F40E94ED
:104BF000AA0910925E0F10925D0F80915B0F909149
:104C00005C0F019731F40E94D90910925C0F109249
:104C10005B0F8091590F90915A0F019731F40E94C8
:104C2000080A10925A0F1092590F8091570F9091C5
:104C3000580F019731F40E94370A1092580F1092C2
:104C4000570F8091550F9091560F019731F40E94A4
:104C5000660A1092560F1092550F8091530F909143
:104C6000540F019731F40E94950A1092540F10923C
:104C7000530F80E00E94DB2B9093F60E8093F50E8D
:104C800081E00E94DB2B9093F40E8093F30E209131
:104C9000F50E3091F60E8091340190913501821716
:104CA00093070CF067C069ED7BE0CE0101960E948E
:104CB000FA30CE0101960E942605CE0101960E948F
:104CC0008B301092700F10926F0F1092680F10922D
:104CD000670F10926A0F1092690F1092440F109292
:104CE000430F1092500F10924F0F1092520F1092CC
:104CF000510F10924C0F10924B0F10924E0F1092BA
:104D00004D0F1092300F10922F0F10924A0F1092E9
:104D1000490F10923E0F10923D0F1092380F1092D3
:104D2000370F10923A0F1092390F10923C0F1092D9
:104D30003B0F81E090E090936E0F80936D0F909306
:104D4000080F8093070F90932A0F8093290F2091CB
:104D5000790F30917A0F80917B0F90917C0F2130E9
:104D6000310509F012C1009709F00FC13093500FBF
:104D700020934F0F2091F30E3091F40E8091360165
:104D800090913701821793070CF054C069E17CE0E1
:104D9000CE0101960E94FA30CE0101960E942605AE
:104DA000CE0101960E948B301092700F10926F0FFF
:104DB0001092680F1092670F10926A0F1092690F8D
:104DC0001092440F1092430F1092500F10924F0FF9
:104DD0001092520F1092510F10924C0F10924B0FD5
:104DE00010924E0F10924D0F1092300F10922F0F05
:104DF00010924A0F1092490F10923E0F10923D0FE1
:104E00001092380F1092370F10923A0F1092390FFC
:104E100010923C0F10923B0F81E090E090936E0F48
:104E200080936D0F90930A0F8093090F90932A0F30
:104E30008093290F80912B0F90912C0F8130910539
:104E400051F420916F0F3091700F232B21F4909328
:104E50002E0F80932D0F8091D70E9091D80EA09198
:104E6000D90EB091DA0ECB56DF4F488159816A8155
:104E70007B81C559D040481B590B6A0B7B0B809135
:104E8000160190911701A0911801B0911901841792
:104E90009507A607B70708F049C0CB56DF4F8881B2
:104EA0009981AA81BB81C559D0408093D70E909338
:104EB000D80EA093D90EB093DA0E61EA7CE080EFB1
:104EC00090E00E94CC036BE97CE08EE091E00E94D0
:104ED000CC036DEC73E081EA9CE00E94753288237C
:104EE00031F06FE572E08BE99CE00E9475326FE56E
:104EF00072E081EA9CE00E9475328823B9F06DEC83
:104F000073E08BE99CE00E947532882379F08091F0
:104F1000810F9091820F8130910541F49093280F79
:104F20008093270F9093FC0E8093FB0E8091770F58
:104F30009091780F019711F40E948216C856DF4FA6
:104F40000FB6F894DEBF0FBECDBFDF91CF911F919A
:104F50000F91FF90EF90DF90CF90BF90AF909F9018
:104F60008F907F906F905F904F90089565E97BE000
:104F7000CE0101960E94FA30CE0101960E942605CC
:104F8000CE0101960E948B3045CC8130910509F00D
:104F9000F1CE232B09F0EECE9093520F8093510F58
:104FA000E9CEFB019C01261B370BA4E6B0E00E9472
:104FB000CA344E1B5F0B9A0150E040E00E948034DF
:104FC000822F0895FC0122878FEF8387738362838A
:104FD0005583448308950F931F93CF93DF93EC0180
:104FE000798368832E833F834887598760E08A8569
:104FF0000E94A92C8B858F3F19F061E00E94A92C9B
:105000000115110511F401ED17E21E870D87DF91DF
:10501000CF911F910F910895FC01CB0162817381A3
:105020006817790748F4448155818417950730F44F
:105030000584F685E02D099480E0089584E60895BE
:10504000CF92DF92EF92FF92CF93DF93EC018B85AB
:105050008F3F39F06C850E94E52C8AE090E00E9439
:105060009E2B8A850E94DB2B62E070E080E090E05E
:105070000E94652B8A850E94DB2BBC01990F880B4F
:10508000990B0E944F332E813F81488559850E949C
:10509000FF336B017C016881798190E080E00E94A0
:1050A0004D339B01AC01C701B6010E94FF3320E0E4
:1050B00030E040E85AE30E94FF330E941E336B0148
:1050C0008B858F3F31F061E09C85911160E00E94FB
:1050D000E52CC601DF91CF91FF90EF90DF90CF904C
:1050E0000895CF93DF93EC010E942028BC01CE01EC
:1050F000DF91CF910C940C2890E080E008952091EE
:1051000000103091011028173907B9F49091BE0FA3
:105110008091BF0F981789F0E091BE0FF0E0E05446
:10512000F04F80812091BE0F30E02F5F3F4F2F73F3
:1051300033272093BE0F90E008958FEF9FEF0895DF
:10514000EF92FF920F931F93CF93DF93DC015C9656
:10515000ED90FC905D97E114F10479F481E090E02A
:1051600013969C938E93129790E080E0DF91CF91FD
:105170001F910F91FF90EF9008955196ED91FC9142
:10518000529750968C915097982F90950FB75E96A6
:105190002C915E97122F127021FD6095F89420815A
:1051A000112319F1282B2083E7012197F1F728E03B
:1051B000462F50E0308160FF1AC0382B3083E70162
:1051C0002197F1F7BA0175956795215089F7112359
:1051D00081F08081892380830FBF5C968D919C91A3
:1051E0000197F1F781E090E0C1CF2923DCCF39238B
:1051F000E5CF9081892BEFCF089520910010309159
:1052000001102817390771F49091BE0F8091BF0FDC
:10521000981741F0E091BE0FF0E0E054F04F80812C
:1052200090E008958FEF9FEF089520910010309146
:1052300001102817390771F48091BF0F2091BE0F1C
:1052400090E0805C9F4F821B910960E470E00E94B7
:105250006C34089590E080E00895E0910010F091A2
:105260000110E817F90769F4A389B4899C9185892D
:10527000809589238C93109201101092001081E088
:10528000089580E00895CF93DF93EC018A8D9B8D84
:10529000892B01F180910010909101108C179D07CE
:1052A000C9F0009711F00E942D298E8D8E7F8E8F70
:1052B0001092BF0F1092BE0FD0930110C093001038
:1052C000EB89FC8980819D89892B808381E0DF9136
:1052D000CF91089580E0FBCF1F920F920FB60F92EF
:1052E00011240BB60F922F933F934F935F936F93BD
:1052F0007F938F939F93AF93BF93EF93FF93E0912F
:105300000010F0910110309749F0A685B78585858A
:10531000968D91FF16C09C918923B1F4FF91EF9176
:10532000BF91AF919F918F917F916F915F914F91BD
:105330003F912F910F900BBE0F900FBE0F901F90BB
:1053400018959C91892351F7A389B4899C918589EB
:10535000809589238C93868997890197F1F7608DD1
:10536000718DA685B785558538E020E0CB01019782
:10537000F1F7822F90E095958795282F4C91452342
:1053800009F02068315091F7868D81FD209580913C
:10539000BF0F90E001968F7399273091BE0F381799
:1053A00099F0A091BF0FB0E0A054B04F2C93809320
:1053B000BF0F828D938D0197F1F7A389B4898C91EA
:1053C0009589892B8C93AACF868D8160868FF1CFAA
:1053D00024E53CE0FC01318320830C942D291F93AC
:1053E000CF93DF93EC01162F6E8D6695617081E08F
:1053F0006827812F0E94E52C61E0812F0E94A92C53
:10540000812F110F990BFC01E45DFD4FE491E88BB6
:10541000FC01E45BFD4FE491F0E0EE0FFF1FEA5862
:10542000FD4F859194919A8B898BDF91CF911F913C
:1054300008951F93CF93DF93EC01162F60E0812F27
:105440000E94A92C8E8D81FD04C061E0812F0E94F5
:10545000E52C1C87812F110F990BFC01E45DFD4F9A
:10546000E491ED87FC01E45BFD4FE491F0E0EE0F89
:10547000FF1FE459FD4F859194919F878E87DF919F
:10548000CF911F9108951F93CF93DF93EC01162FB7
:105490001B821A8288EE93E0A0E0B0E08C839D83AB
:1054A000AE83BF8384E59CE0998388831F8A1E8A2C
:1054B000198E188E1B8E1A8E1D8E1C8E8E8D8E7FD1
:1054C00020FB81F98E8F642FCE010E94EF29612F7E
:1054D000CE01DF91CF911F910C94192ACF93DF93C6
:1054E000EC019A01AB011B8E1A8E198E188E1F8A41
:1054F0001E8A60E079E08DE390E00E94A234F90119
:10550000C90103972430310510F481E090E09D8FAC
:105510008C8F6C85603208F052C0C90196958795D2
:105520008431910508F450C043979F8B8E8BC9013D
:105530000597369710F481E090E0998F888FC90124
:10554000880F991F280F391F36952795369527956F
:105550002D303105E0F12C5031093B8F2A8F90918D
:10556000680082E068303CF088E0603124F081E03F
:1055700068310CF484E0892B809368008C852CE6DC
:1055800030E0883054F023E730E0803134F02BE60F
:1055900030E0883114F42DE630E03C8B2B8B87789B
:1055A00087FF03C08150886F8F5F91E001C0990F22
:1055B0008A95EAF79D8B8C8D9D8D0197F1F7CE0131
:1055C000DF91CF910C94432981E090E0AECF21E0B0
:1055D00030E0C3CF1F920F920FB60F9211242F937A
:1055E0003F938F939F93AF93BF93809107109091B8
:1055F0000810A0910910B0910A103091061023E014
:10560000230F2D3768F126E8230F0296A11DB11D47
:10561000209306108093071090930810A093091010
:10562000B0930A108091021090910310A091041081
:10563000B09105100196A11DB11D809302109093A9
:105640000310A0930410B0930510BF91AF919F91E8
:105650008F913F912F910F900FBE0F901F90189533
:105660000196A11DB11DD4CF2FB7F89460910710FA
:10567000709108108091091090910A102FBF089521
:105680003FB7F8948091021090910310A0910410FC
:10569000B091051026B5A89B05C02F3F19F00196C3
:1056A000A11DB11D3FBFBA2FA92F982F8827BC017C
:1056B000CD01620F711D811D911D42E0660F771FA4
:1056C000881F991F4A95D1F708958F929F92AF92A4
:1056D000BF92CF92DF92EF92FF926B017C010E940A
:1056E000402B4B015C01C114D104E104F104E9F049
:1056F0000E9411330E94402B681979098A099B097D
:10570000683E73408105910570F321E0C21AD1080B
:10571000E108F10888EE880E83E0981EA11CB11CF8
:10572000C114D104E104F10429F7FF90EF90DF9058
:10573000CF90BF90AF909F908F9008958230910549
:1057400038F0880F991F880F991F05970197F1F777
:105750000895789484B5836084BD85B5836085BDE4
:10576000EEE6F0E0808181608083E1E8F0E082E0B5
:105770008083808181608083E0E8F0E080818160C7
:105780008083E1EBF0E0808184608083E0EBF0E0F7
:10579000808181608083E1E9F0E0808183608083A3
:1057A000E0E9F0E080818160808387E880937A007F
:1057B0001092C1000895883020F0873108F487E105
:1057C00088512091430190E4299F90011124877012
:1057D000822B80937C0080917A00806480937A0091
:1057E00080917A0086FDFCCF8091780090917900BD
:1057F00008951F93CF93DF93182FEB0161E00E9470
:10580000A92C209739F460E0812FDF91CF911F916F
:105810000C94E52CCF3FD10511F461E0F5CFE12FD9
:10582000F0E0E45FFD4FE491E250EA3008F054C04C
:10583000F0E0E35EF34D0C94C134272C2F2C342C74
:105840003E2C6C2C6C2C482C502C582C622C84B583
:10585000806884BDC7BDDF91CF911F91089584B545
:10586000806284BDC8BDF7CF80918000806880933E
:105870008000D0938900C0938800EDCF8091800094
:10588000806280938000D0938B00C0938A00E3CF26
:105890008091B00080688093B000C093B300DBCFEC
:1058A0008091B00080628093B000C093B400D3CFE9
:1058B00080919000806880939000D0939900C0936D
:1058C0009800C9CF80919000806280939000D0931F
:1058D0009B00C0939A00BFCFC038D1050CF09DCF7C
:1058E00092CF82508A3088F5E82FF0E0E658F34DE9
:1058F0000C94C134A22CA62C842C8A2CA52CA52C6B
:105900008E2C942C982C9E2C809180008F778093E5
:1059100080000895809180008F7DF9CF8091B00044
:105920008F778093B00008958091B0008F7DF9CF7C
:10593000809190008F7780939000089580919000DF
:105940008F7DF9CF84B58F7784BD089584B58F7D21
:10595000FBCFCF93DF9390E0FC01E45DFD4F2491FA
:10596000845B9D4FFC0184918823C9F090E0880FEF
:10597000991FFC01E058FD4FA591B491FC01EA5834
:10598000FD4FC591D49161110DC09FB7F8948C91D2
:10599000209582238C938881282328839FBFDF91C1
:1059A000CF910895623051F49FB7F8943C91822FC3
:1059B000809583238C93E8812E2BEFCF8FB7F894BB
:1059C000EC912E2B2C938FBFEACF1F93CF93DF93B5
:1059D000282F30E0F901E45FFD4F8491F901E45D87
:1059E000FD4FD491F901E45BFD4FC491CC23A9F0A4
:1059F000162F81110E94712CEC2FF0E0EE0FFF1F8B
:105A0000EA58FD4FA591B4918FB7F894EC9111111C
:105A100008C0D095DE23DC938FBFDF91CF911F911B
:105A20000895DE2BF8CFFC01918D228D892F90E017
:105A3000805C9F4F821B91098F7399270895FC0109
:105A4000918D828D981731F0828DE80FF11D858D33
:105A500090E008958FEF9FEF0895FC01918D828D66
:105A6000981761F0A28DAE0FBF2FB11D5D968C917E
:105A7000928D9F5F9F73928F90E008958FEF9FEFBD
:105A80000895FC01538D448D252F30E0842F90E044
:105A9000821B930B541710F0CF9608950197089529
:105AA0008BEA9EE2892B49F080E090E0892B29F077
:105AB0000E94AB2E81110E94000080E090E0892BB3
:105AC00049F080E090E0892B29F00E9400008111CC
:105AD0000C9400000895FC01A48DA80FB92FB11DEE
