:020000040000FA
:100000000C944D010C9477010C9477010C947701BA
:100010000C9432330C9432330C9432330C943233CC
:100020000C9477010C9477010C9477010C94770170
:100030000C9477010C9477010C9477010C94770160
:100040000C9477010C9477010C94663C0C94770126
:100050000C94B6360C94EC360C9477010C94770122
:100060000C9477010C9477010C9477010C94770130
:100070000C9477010C9477010C9477010C94770120
:100080000C9477010C9477010C9477016364696E8A
:100090006F70737578585B004E414E494E49545904
:1000A000494E46CDCCCC3D0AD7233C17B7D1387743
:1000B000CC2B329595E6241FB14F0A000020410059
:1000C00000C84200401C4620BCBE4CCA1B0E5AAEA3
:1000D000C59D7400407A10F35A00A0724E180900B2
:1000E00010A5D4E80000E87648170000E40B54029D
:1000F0000000CA9A3B000000E1F5050000809698D8
:1001000000000040420F000000A086010000001027
:100110002700000000E80300000000640000000069
:10012000000A00000000000100000000002C76D84A
:1001300088DC674F0823DFC1DFAE59E1B1B796E530
:10014000E3E453C63AE651997696E8E6C28426EB94
:10015000898C9B62ED407C6FFCEFBC9C9F40F2BAA7
:10016000A56FA5F490055A2AF75C936B6CF9676D3F
:10017000C11BFCE0E40D47FEF520E6B500D0ED9094
:100180002E0300943577050080841E080000204E61
:100190000A000000C80C333333330F986E128311FA
:1001A00041EF8D2114893BE65516CFFEE6DB18D1D1
:1001B000844B381BF77C1D901DA4BBE424203284A3
:1001C000725E228100C9F124ECA1E53D27457865E6
:1001D000637574696E672052696768742053696437
:1001E000652052657475726E20436C65616E696E30
:1001F0006700457865637574696E67204C65667441
:1002000020536964652052657475726E20436C6575
:10021000616E696E67000000000203000A0B0000B7
:1002200000000504090800000000000000000000B4
:1002300000000000000001020408102040800102BC
:1002400004081020408001020408102040800102B0
:10025000040810204080020202020202020204048A
:10026000040404040404030303030303030301015C
:1002700001010101010100002000230026002900E6
:1002800000002200250028002B000000210024008F
:1002900027002A00FF1D2037051F11241FBECFEFA6
:1002A000D0E4DEBFCDBF12E1A0E0B1E0EAEFFFE9AC
:1002B00000E00BBF02C007900D92A03DB107D9F737
:1002C00026E1A0EDB2E101C01D92A636B207E1F72A
:1002D00011E0CCE4D1E004C02197FE010E94284146
:1002E000CA34D107C9F70E94573C0C94F04F0C94C4
:1002F0000000AF92BF92CF92DF92EF92FF920F93E6
:100300001F93CF93DF93CDB7DEB7A0970FB6F894C6
:10031000DEBF0FBECDBF81E090E090938B14809341
:100320008A1465EE72E18AEB95E10E949737CE015F
:1003300001967C0181E1F70111928A95E9F76EE35C
:1003400071E085EE92E10E943A45009709F45BC0A6
:10035000FF92EF9221E431E03F932F939F938F938D
:100360000E94C9450F900F900F900F900F900F9023
:10037000019709F048C08E010E5E1F4F89E0F80119
:1003800011928A95E9F7F70101900020E9F731977A
:100390006F01CE18DF08B12CA12CAC14BD04DCF425
:1003A0001D8EF70180818B8F81818C8F40E150E021
:1003B00070E060E0CE014B960E949243F501F59506
:1003C000E795E00FF11F6083F2E0AF0EB11C82E011
:1003D000E80EF11CE2CF6EE471E08AEB95E10E9439
:1003E0009737B8018AEB95E10E94BC3760E671E06F
:1003F000C8010E940D45892BB9F481E090E09093EB
:10040000C7148093C614A0960FB6F894DEBF0FBE33
:10041000CDBFDF91CF911F910F91FF90EF90DF90B3
:10042000CF90BF90AF90089563E671E0C8010E943D
:100430000D45892B39F481E090E0909383148093EB
:100440008214E1CF66E671E0C8010E940D45892B58
:1004500009F043C01092C5141092C4141092BD1438
:100460001092BC141092BF141092BE1410929914E2
:10047000109298141092A5141092A4141092A7141C
:100480001092A6141092A1141092A0141092A3140A
:100490001092A21410928514109284141092931446
:1004A0001092921410928D1410928C1410928F143A
:1004B00010928E14109291141092901481E090E09A
:1004C0009093C3148093C214909365148093641422
:1004D00090936B1480936A1496CF6AE671E0C8011A
:1004E0000E940D45892B39F481E090E09093B71478
:1004F0008093B61488CF6EE871E0C8010E940D4564
:10050000892B39F481E090E09093B5148093B41472
:100510007ACF43E050E069E671E0C8010E941D45D2
:10052000892BA9F583E194E19F938F938DE691E068
:100530009F938F931F930F930E94C9458C010F9037
:100540000F900F900F900F900F90019709F05BCFD5
:1005500063E771E08AEB95E10E949737609113148D
:10056000709114144AE0CE014B960E94223ABE01CB
:10057000655E7F4F8AEB95E10E94AA37CE014B96CC
:100580000E94913910937D1400937C143CCF64E851
:1005900071E0C8010E940D45892B59F481E090E07B
:1005A0009093B3148093B214909363148093621465
:1005B0008FCF67E871E0C8010E940D45892B39F49F
:1005C00081E090E09093B1148093B014EDCF6AE88D
:1005D00071E0C8010E940D45892B39F481E090E05B
:1005E0009093AF148093AE14DFCF43E050E06DE8FA
:1005F00071E0C8010E941D45892BA9F585E194E1B0
:100600009F938F9381E991E09F938F931F930F9313
:100610000E94C9458C010F900F900F900F900F9082
:100620000F90019709F0EFCE63E771E08AEB95E157
:100630000E94973760911514709116144AE0CE010C
:100640004B960E94223ABE01655E7F4F8AEB95E190
:100650000E94AA37CE014B960E94913910937F14C5
:1006600000937E14D0CE43E050E067E971E0C8010A
:100670000E941D45892BA9F581E194E19F938F93F9
:100680008BE991E09F938F931F930F930E94C9452D
:100690008C010F900F900F900F900F900F9001977B
:1006A00009F0B1CE63E771E08AEB95E10E949737DC
:1006B00060911114709112144AE0CE014B960E9481
:1006C000223ABE01655E7F4F8AEB95E10E94AA3710
:1006D000CE014B960E94913910937B1400937A14AB
:1006E00092CE61EA71E0C8010E940D45892B39F470
:1006F00081E090E09093AD148093AC1455CF64EA00
:1007000071E0C8010E940D45892B39F481E090E029
:100710009093AB148093AA1447CF67EA71E0C801A5
:100720000E940D45892B39F481E090E09093A91443
:100730008093A81439CF43E050E06AEA71E0C80121
:100740000E941D45892BA9F584E794E19F938F931F
:100750008EEA91E09F938F931F930F930E94C94558
:100760008C010F900F900F900F900F900F900197AA
:1007700009F049CE64EB71E08AEB95E10E9497376E
:1007800060917414709175144AE0CE014B960E94EA
:10079000223ABE01655E7F4F8AEB95E10E94AA373F
:1007A000CE014B960E9491391093771400937614E2
:1007B0002ACE43E050E06DEC71E0C8010E941D4577
:1007C000892BA9F582E794E19F938F9381ED91E0C6
:1007D0009F938F931F930F930E94C9458C010F9095
:1007E0000F900F900F900F900F90019709F00BCE84
:1007F00067ED71E08AEB95E10E9497376091721482
:10080000709173144AE0CE014B960E94223ABE01C9
:10081000655E7F4F8AEB95E10E94AA37CE014B9629
:100820000E9491391093791400937814ECCD43E031
:1008300050E060EF71E0C8010E941D45892B91F5E1
:1008400082E195E19F938F9384EF91E09F938F9343
:100850001F930F930E94C9458C010F900F900F902A
:100860000F900F900F90019709F0CDCD6AEF71E0D6
:100870008AEB95E10E94973762E175E1CE014B96D4
:100880000E94C33ABE01655E7F4F8AEB95E10E94EC
:10089000AA37CE014B960E94913910936F140093A2
:1008A0006E14B1CD63E172E0C8010E940D45892B41
:1008B00039F481E090E090936D1480936C14A3CD93
:1008C00067E172E0C8010E940D45892B19F510926D
:1008D000C5141092C4141092BD141092BC1410923E
:1008E000BF141092BE141092991410929814109282
:1008F00085141092841481E090E09093C314809347
:10090000C2149093A7148093A614909361148093BB
:100910006014DECD6AE172E0C8010E940D45892BAA
:1009200019F51092C5141092C4141092BD141092AF
:10093000BC141092BF141092BE141092991410920D
:100940009814109285141092841481E090E0909392
:10095000C3148093C2149093A5148093A41490930D
:100960005F1480935E14B4CD6DE172E0C8010E9403
:100970000D45892B19F51092C5141092C4141092CC
:10098000BD141092BC141092BF141092BE14109299
:10099000991410929814109285141092841481E086
:1009A00090E09093C3148093C2149093A314809307
:1009B000A21490935D1480935C148ACD60E272E07F
:1009C000C8010E940D45892B19F51092C51410928B
:1009D000C4141092BD141092BC141092BF14109243
:1009E000BE141092991410929814109285141092BB
:1009F000841481E090E09093C3148093C214909388
:100A0000A1148093A01490935B1480935A1460CD2A
:100A100063E272E0C8010E940D45892B59F481E020
:100A200090E090939F1480939E1490935914809318
:100A300058144ECD66E272E0C8010E940D45892B24
:100A400059F481E090E090939D1480939C149093CE
:100A50005714809356143CCD69E272E0C8010E949D
:100A60000D45892B59F481E090E090939B1480937D
:100A70009A1490935514809354142ACD6CE272E02A
:100A8000C8010E940D45892B39F481E090E09093D4
:100A9000811480938014B7CC6FE272E0C8010E9489
:100AA0000D45892B29F41092811410928014ABCC3F
:100AB00062E372E0C8010E940D45892B39F481E0A0
:100AC00090E09093CF148093CE149DCC65E372E0B8
:100AD000C8010E940D45892B39F481E090E0909384
:100AE0001A14809319148FCC68E372E0CE014296F9
:100AF0000E940D45892B39F481E090E09093181401
:100B00008093171480CC6BE372E0CE0142960E9472
:100B10000D45892B39F481E090E090937114809316
:100B2000701471CC6EE372E08AEB95E10E94973706
:100B30006ACCFF920F931F93CF93DF93EC01F62EB5
:100B400008811981C8010E94CA4FF81621F06F2D43
:100B5000C8010E94D24FCE01DF91CF911F910F911A
:100B6000FF900895CF92DF92EF92FF920F931F9321
:100B7000CF93DF9300D0CDB7DEB76C017C0106E8E0
:100B800011E01A830983F70161917F01CE0101967B
:100B90000E9499050F5F1F4F0A38F1E01F0789F780
:100BA000C6010F900F90DF91CF911F910F91FF9091
:100BB000EF90DF90CF900895AF92BF92CF92DF92E7
:100BC000EF92FF920F931F93CF93DF9300D0CDB797
:100BD000DEB78C015B01FB01E480F5809A83898399
:100BE0006E2DCE0101960E949905D12CC12C0F5F6C
:100BF0001F4FFF24CE14DF0494F4B601C5010E94F8
:100C0000E73B98012C0D3D1D3A832983682FCE01C7
:100C100001960E949905FFEFCF1ADF0AEBCFC701BB
:100C2000800F911F0F900F90DF91CF911F910F9127
:100C3000FF90EF90DF90CF90BF90AF9008954F92CC
:100C40005F926F927F928F929F92AF92BF92CF925C
:100C5000DF92EF92FF920F931F93CF93DF9300D019
:100C600000D000D0CDB7DEB75C014B014DB65EB60B
:100C70000E94CA4F082F10E0C80101962DB73EB759
:100C8000281B390B0FB6F8943EBF0FBE2DBF8DB792
:100C90009EB701966C0175015C0137019FEF691ADF
:100CA000790AEFEFEE1AFE0AC5018C199D0980172B
:100CB00091073CF4C7010E94CA4FF50181935F017F
:100CC000F0CFF601E00FF11F1082B601CE010196C0
:100CD0000E94033ABE016F5F7F4FC4010E94CC3A6D
:100CE000CE0101960E949139C801860D971D0FB65D
:100CF000F8945EBE0FBE4DBE26960FB6F894DEBFCA
:100D00000FBECDBFDF91CF911F910F91FF90EF905C
:100D1000DF90CF90BF90AF909F908F907F906F901B
:100D20005F904F900895CF93DF9300D000D000D014
:100D3000CDB7DEB768E175E18AE491E00E941F0655
:100D400088E195E10E943E3C6130710509F43EC1A5
:100D50006CE075E184E690E00E94DC0566E075E1F8
:100D600082E890E00E94DC0560E075E180EA90E0B6
:100D70000E94DC056AEF74E182ED90E00E94DC05E0
:100D800064EF74E180EF90E00E94DC056EEE74E1A8
:100D90008EE091E00E94DC0568EE74E18CE291E067
:100DA0000E94DC0562EE74E18AE491E00E94DC05B9
:100DB0006CED74E18AE491E00E94DC0560E772E08A
:100DC0008AEB95E10E94BC376CEA72E08AEB95E110
:100DD0000E94BC3762E475E184E690E00E941F0641
:100DE0006CE375E182E890E00E941F0666E375E11E
:100DF00080EA90E00E941F0660E375E182ED90E0DA
:100E00000E941F066AE275E180EF90E00E941F06D3
:100E100064E275E18EE091E00E941F066EE175E1EB
:100E20008CE291E00E941F0668E175E18AE491E09E
:100E30000E941F0662E175E18AE491E00E941F06AC
:100E400061EC72E0CE0101960E94033A62E475E122
:100E5000CE0101960E94793BBC018AEB95E10E948C
:100E6000AA37CE0101960E94913962EE72E0CE015E
:100E700001960E94033A6CE375E1CE0101960E944F
:100E8000793BBC018AEB95E10E94AA37CE0101961D
:100E90000E94913963E073E0CE0101960E94033A0B
:100EA00066E375E1CE0101960E94793BBC018AEBB5
:100EB00095E10E94AA37CE0101960E94913968E21D
:100EC00073E0CE0101960E94033A60E375E1CE0122
:100ED00001960E94793BBC018AEB95E10E94AA37FA
:100EE000CE0101960E94913962E473E0CE01019631
:100EF0000E94033A6AE275E1CE0101960E94793BB5
:100F0000BC018AEB95E10E94AA37CE0101960E94AE
:100F100091396DE573E0CE0101960E94033A64E2D7
:100F200075E1CE0101960E94793BBC018AEB95E107
:100F30000E94AA37CE0101960E9491396BE773E0B7
:100F4000CE0101960E94033A6EE175E1CE01019651
:100F50000E94793BBC018AEB95E10E94AA37CE0141
:100F600001960E94913969E973E0CE0101960E94D1
:100F7000033A68E175E1CE0101960E94793BBC011C
:100F80008AEB95E10E94AA37CE0101960E94913921
:100F900061EB73E0CE0101960E94033A62E175E1D4
:100FA000CE0101960E94793BBC018AEB95E10E943B
:100FB000AA37CE0101960E94913926960FB6F89471
:100FC000DEBF0FBECDBFDF91CF9108956FE872E015
:100FD000F7CECF93DF9320917515222399F0EC0182
:100FE00063E274E10E94B93B81110CC0BE018AEB3F
:100FF00095E10E94AA37BE0183E294E1DF91CF918F
:101000000C94AC3ADF91CF910895CF93DF9300D049
:1010100000D000D0CDB7DEB76BE07EE0CE01019608
:101020000E94033ACE0101960E94E907CE01019683
:101030000E94913926960FB6F894DEBF0FBECDBF41
:10104000DF91CF910895CF93DF9300D000D000D0EF
:10105000CDB7DEB76CEC73E0CE0101960E94033A87
:10106000CE0101960E94E907CE0101960E949139B6
:10107000E0914815F0914915099526960FB6F89418
:10108000DEBF0FBECDBFDF91CF910895CF93DF9329
:1010900000D000D000D0CDB7DEB760EE73E0CE0157
:1010A00001960E94033ABE016F5F7F4F84E690E095
:1010B0000E94DC05CE0101960E94913964EE73E036
:1010C000CE0101960E94033ACE0101960E94E907E3
:1010D000CE0101960E94913926960FB6F894DEBF94
:1010E0000FBECDBFDF91CF910895CF93DF9300D096
:1010F00000D000D0CDB7DEB761E074E0CE0101963C
:101100000E94033ABE016F5F7F4F84E690E00E9429
:10111000DC05CE0101960E94913965E074E0CE01B4
:1011200001960E94033ACE0101960E94E907CE0182
:1011300001960E94913926960FB6F894DEBF0FBE35
:10114000CDBFDF91CF910895CF93DF9300D000D032
:1011500000D0CDB7DEB765E274E0CE0101960E9403
:10116000033ABE016F5F7F4F84E690E00E94DC058A
:10117000CE0101960E94913969E274E0CE01019698
:101180000E94033ACE0101960E94E907CE01019622
:101190000E94913926960FB6F894DEBF0FBECDBFE0
:1011A000DF91CF910895CF93DF9300D000D000D08E
:1011B000CDB7DEB760911314709114144AE0CE01DC
:1011C00001960E94223ABE016F5F7F4F84E690E055
:1011D0000E94DC05CE0101960E94913967E474E01B
:1011E000CE0101960E94033ACE0101960E94E907C2
:1011F000CE0101960E9491396091131470911414DC
:101200004AE0CE0101960E94223ACE0101960E9448
:10121000E907CE0101960E94913926960FB6F894FF
:10122000DEBF0FBECDBFDF91CF910895CF93DF9387
:1012300000D000D000D0CDB7DEB760EE73E0CE01B5
:1012400001960E94033ABE016F5F7F4F82E890E0F3
:101250000E94DC05CE0101960E94913967E674E098
:10126000CE0101960E94033ACE0101960E94E90741
:10127000CE0101960E94913926960FB6F894DEBFF2
:101280000FBECDBFDF91CF910895CF93DF9300D0F4
:1012900000D000D0CDB7DEB761E074E0CE0101969A
:1012A0000E94033ABE016F5F7F4F82E890E00E9488
:1012B000DC05CE0101960E94913964E874E0CE010C
:1012C00001960E94033ACE0101960E94E907CE01E1
:1012D00001960E94913926960FB6F894DEBF0FBE94
:1012E000CDBFDF91CF910895CF93DF9300D000D091
:1012F00000D0CDB7DEB765E274E0CE0101960E9462
:10130000033ABE016F5F7F4F82E890E00E94DC05E8
:10131000CE0101960E94913964EA74E0CE010196F3
:101320000E94033ACE0101960E94E907CE01019680
:101330000E94913926960FB6F894DEBF0FBECDBF3E
:10134000DF91CF910895CF93DF9300D000D000D0EC
:10135000CDB7DEB760911514709116144AE0CE0136
:1013600001960E94223ABE016F5F7F4F82E890E0B3
:101370000E94DC05CE0101960E94913962EC74E076
:10138000CE0101960E94033ACE0101960E94E90720
:10139000CE0101960E949139609115147091161436
:1013A0004AE0CE0101960E94223ACE0101960E94A7
:1013B000E907CE0101960E94913926960FB6F8945E
:1013C000DEBF0FBECDBFDF91CF910895CF93DF93E6
:1013D00000D000D000D0CDB7DEB76091111470916D
:1013E00012144AE0CE0101960E94223ABE016F5FBC
:1013F0007F4F80EA90E00E94DC05CE0101960E94BA
:10140000913962EE74E0CE0101960E94033ACE015A
:1014100001960E94E907CE0101960E9491396091E0
:101420001114709112144AE0CE0101960E94223AE2
:10143000CE0101960E94E907CE0101960E949139E2
:1014400026960FB6F894DEBF0FBECDBFDF91CF91C9
:101450000895CF93DF9300D000D000D0CDB7DEB792
:1014600080919C1490919D140197A1F56FE677E00F
:10147000CE0101960E94033ABE016F5F7F4F82ED5D
:1014800090E00E94DC05CE0101960E94913960E84F
:1014900077E0CE0101960E94033ABE016F5F7F4F55
:1014A00080EF90E00E94DC05CE0101960E94913908
:1014B00010929D1410929C146AE075E0CE01019682
:1014C0000E94033ACE0101960E94E907CE010196DF
:1014D0000E94913926960FB6F894DEBF0FBECDBF9D
:1014E000DF91CF910895CF93DF9300D000D000D04B
:1014F000CDB7DEB780919A1490919B140197A1F516
:1015000060E877E0CE0101960E94033ABE016F5F6A
:101510007F4F82ED90E00E94DC05CE0101960E9493
:1015200091396FE677E0CE0101960E94033ABE0141
:101530006F5F7F4F80EF90E00E94DC05CE01019647
:101540000E94913910929B1410929A1462E275E0F5
:10155000CE0101960E94033ACE0101960E94E9074E
:10156000CE0101960E94913926960FB6F894DEBFFF
:101570000FBECDBFDF91CF910895BC01990F880BAD
:10158000990B0E94AC3F20E030EC4FE754E40E94FE
:10159000023F23E333E343E550E40E94614020E04F
:1015A00030E040EA51E40E94023F2AE037ED43EA8E
:1015B0005BE30E94023F0895CF92DF92EF92FF9289
:1015C000CF93DF93CDB7DEB72E970FB6F894DEBF7B
:1015D0000FBECDBFCE010D969F938F9302979F9321
:1015E0008F931F921F928BE395E09F938F9384E4D8
:1015F00095E09F938F930E94C945CE0105969F93D6
:101600008F9302969F938F9302969F938F9380E57B
:1016100095E09F938F9389E595E09F938F930E9428
:10162000C945A985BA8520E13EE00E9440416B0191
:101630007C01AF81B8852CE330E00E944041C60EAA
:10164000D71EE81EF91E6D817E81072E000C880BC7
:10165000990BC60ED71EE81EF91EAB85BC8520E887
:1016600031E541E050E00E944741C60ED71EE81E1A
:10167000F91EAD85BE85A25BB74020E833E341EE9D
:1016800051E00E944741C60ED71EE81EF91E82E7B0
:10169000C81A80E2D80A88E2E80AF108C982DA8228
:1016A000EB82FC82CE0101960E94B20560E177E2F6
:1016B00080E090E00E94E13C0FB6F894DEBF0FBEE0
:1016C000CDBF2E960FB6F894DEBF0FBECDBFDF9113
:1016D000CF91FF90EF90DF90CF9008952F923F929F
:1016E0004F925F926F927F928F929F92AF92BF9232
:1016F000CF92DF92EF92FF920F931F93CF93DF93DE
:10170000CDB7DEB7A4970FB6F894DEBF0FBECDBF3E
:101710001C016A017B018CE3882E912CA12CB12C39
:10172000CB01BA01A50194010E94E740698F7A8F2D
:101730008B8F9C8FCA01B901A50194010E94E740DB
:101740006D8F7E8F8F8F98A3C701B60120E13EE099
:1017500040E050E00E94E740CA01B90128E130E0D2
:1017600040E050E00E94E74069A37AA38BA39CA3CA
:10177000C701B60120E831E541E050E00E94E740B2
:1017800069017A0192EB892E97E0992EA12CB12C58
:1017900020E9422E55245394612C712C95EBC916E7
:1017A00095E0D906E104F10408F04FC0C501B40189
:1017B00024E630E040E050E00E94E7402B013C018D
:1017C000C501B40120E931E040E050E00E94E7406B
:1017D0008B019C0141E050E060E070E0D501C40164
:1017E00083709927AA27BB278D8B9E8BAF8BB88FD1
:1017F000DB01CA018D7F84309105A105B10509F493
:1018000057C00997A105B10509F452C08FE190E0D6
:10181000423051056105710509F04CC08D899E89E2
:10182000AF89B88D892B8A2B8B2B29F44114510455
:101830006104710439F48CE190E001151105210572
:101840003105C1F58DE190E035C0D501C40183704B
:101850009927AA27BB27892B8A2B8B2B61F4C501DB
:10186000B40124E630E040E050E00E94E740672BFE
:10187000682B692B51F4C501B401A30192010E94A8
:10188000E740672B682B692B61F49EE6C91A91E04B
:10189000D90AE108F1088FEF881A980AA80AB80A4D
:1018A0007DCFADE6CA1AA1E0DA0AE108F108F3CF6C
:1018B0008EE190E0092E000CAA0BBB0BC816D906CE
:1018C000EA06FB0648F0C81AD90AEA0AFB0A4F5F83
:1018D0005F4F6F4F7F4F8CCF9C8D9F93AB8DAF939E
:1018E000BA8DBF93898D8F9398A19F93AF8DAF933E
:1018F000BE8DBF938D8D8F939CA19F93ABA1AF9312
:10190000BAA1BF9389A18F93BF92AF929F928F92FA
:101910009FEFC91AD90AE90AF90AFF92EF92DF92FA
:10192000CF927F936F935F934F9382E695E09F935F
:101930008F938E010F5F1F4F1F930F930E94994546
:10194000B801C1010E94033A0FB6F894DEBF0FBE82
:10195000CDBFC101A4960FB6F894DEBF0FBECDBFB8
:10196000DF91CF911F910F91FF90EF90DF90CF907B
:10197000BF90AF909F908F907F906F905F904F90AF
:101980003F902F900895CF93DF93CDB7DEB7609748
:101990000FB6F894DEBF0FBECDBF86E891E00E947F
:1019A000CA4F8D8787E891E00E94CA4F8E8788E8EA
:1019B00091E00E94CA4F8F8789E891E00E94CA4F48
:1019C000888B4D855E856F857889CE0107960E944C
:1019D0006E0B66E875E0CE0101960E94033ABE01E7
:1019E000695F7F4FCE0101960E94793BBC018AEB73
:1019F00095E10E94AA37CE0101960E949139CE014D
:101A000007960E94913960960FB6F894DEBF0FBE1C
:101A1000CDBFDF91CF9108959C018A309105ACF440
:101A2000982F9770283031058CF484B7877F84BF56
:101A30008091600088618093600090936000809145
:101A40006000806480936000089591E09062EDCF23
:101A500089E090E00E940C0D04B600FE06C06EE91D
:101A600075E08AEB95E10E94BC3704B601FE06C022
:101A700067EB75E08AEB95E10E94BC3704B602FE85
:101A800006C060ED75E08AEB95E10E94BC3704B6B4
:101A900003FE06C06AEE75E08AEB95E10E94BC3752
:101AA00014BE0895CF93DF9300D000D000D0CDB7FF
:101AB000DEB780917814909179140197C1F4609108
:101AC0007214709173144AE0CE0101960E94223A7A
:101AD000BE016F5F7F4F8CE291E00E94DC05CE017A
:101AE00001960E9491391092791410927814809185
:101AF0007614909177140197C1F4609174147091E9
:101B000075144AE0CE0101960E94223ABE016F5F31
:101B10007F4F8EE091E00E94DC05CE0101960E948D
:101B20009139109277141092761426960FB6F89485
:101B3000DEBF0FBECDBFDF91CF9108950F931F93EE
:101B4000CF93DF930AE010E0D0E0C0E084ED92E1B3
:101B50000E946C35C80FD11D6AE070E080E090E013
:101B60000E94E13C0150110989F7CE016AE070E062
:101B70000E94D340CB01DF91CF911F910F91089527
:101B80000F931F93CF93DF930AE010E0D0E0C0E003
:101B900084ED92E10E941B35C80FD91F6AE070E006
:101BA00080E090E00E94E13C0150110989F7CE01EC
:101BB0006AE070E00E94D340CB01DF91CF911F918A
:101BC0000F910895CF92DF92EF92FF920F931F93A0
:101BD000CF93DF93C0918614D0918714C130D10583
:101BE00009F044C00E94B03C0091E9131091EA133F
:101BF0002091EB133091EC136B017C01C01AD10AD8
:101C0000E20AF30A00910E0110910F0120911001D8
:101C100030911101C016D106E206F306C8F06093B8
:101C2000E9137093EA138093EB139093EC13809174
:101C3000881490918914892BA1F4D0938914C093AE
:101C4000881480918814909189140197F1F55F9A16
:101C5000DF91CF911F910F91FF90EF90DF90CF9088
:101C600008951092891410928814EBCF0E94B03C12
:101C70000091E9131091EA132091EB133091EC13CA
:101C80006B017C01C01AD10AE20AF30A00910E012D
:101C900010910F012091100130911101C016D10651
:101CA000E206F306A8F26093E9137093EA138093B7
:101CB000EB139093EC138091881490918914019701
:101CC00039F610928914109288145F98C1CFCF9280
:101CD000DF92EF92FF920F931F93CF93DF9300D089
:101CE00000D000D0CDB7DEB70E94B03C0091ED131C
:101CF0001091EE132091EF133091F0136B017C01E2
:101D0000C01AD10AE20AF30A0091120110911301DC
:101D10002091140130911501C016D106E206F30698
:101D200060F06093ED137093EE138093EF13909334
:101D3000F01310928B1410928A1480918A1490914F
:101D40008B140197B1F50E94B03C0091F1131091F2
:101D5000F2132091F3133091F4136B017C01C01A3C
:101D6000D10AE20AF30A009116011091170120919D
:101D7000180130911901C016D106E206F306C8F029
:101D80006093F1137093F2138093F3139093F41311
:101D900063E076E0CE0101960E94033ACE010196FF
:101DA0000E94E907CE0101960E9491395E9B10C006
:101DB0005E9826960FB6F894DEBF0FBECDBFDF91BA
:101DC000CF911F910F91FF90EF90DF90CF900895EA
:101DD0005E9AEFCFCF92DF92EF92FF920F931F9315
:101DE0000E94B03C0091F5131091F6132091F71367
:101DF0003091F8136B017C01C01AD10AE20AF30A90
:101E000000911A0110911B0120911C0130911D01BC
:101E1000C016D106E206F306C8F02091E3122111A4
:101E200015C06093F5137093F6138093F713909396
:101E3000F8138091881490918914892B71F481E0B2
:101E400090E090938914809388145E9A1F910F916B
:101E5000FF90EF90DF90CF90089510928914109228
:101E600088145E98F3CFCF93DF9300D000D000D0DA
:101E7000CDB7DEB764E275E18EE091E00E941F0607
:101E800084E295E10E943E3C70931E1460931D1401
:101E90006EE175E18CE291E00E941F068EE195E112
:101EA0000E943E3C70931C1460931B1464E176E026
:101EB000CE0101960E94033ACE0101960E94E907E5
:101EC000CE0101960E94913926960FB6F894DEBF96
:101ED0000FBECDBFDF91CF9108950F931F93CF9386
:101EE000DF9300D000D000D0CDB7DEB760911F14D3
:101EF000709120144AE0CE0101960E94223ACE0150
:101F000001960E94E907CE0101960E94913961E392
:101F100076E0CE0101960E94033ACE0101960E941E
:101F2000E907CE0101960E94913962E475E184E6E9
:101F300090E00E941F0682E495E10E943E3C70936F
:101F40002E1460932D146CE375E182E890E00E94FA
:101F50001F068CE395E10E943E3C70933014609321
:101F60002F1481E090E090938714809386149093CF
:101F7000D3148093D21482E580933C012A98299847
:101F800010923B0110923A010091311410913214D9
:101F900080912F149091301480179107A4F0B8010C
:101FA00083E00E94753D4AE050E0B8018AEB95E17C
:101FB0000E946E386FE070E080E090E00E94E13CAB
:101FC0000F5F1F4FE5CF909332148093311464E676
:101FD00070E080E090E00E94E13C009133141091A9
:101FE000341480912D1490912E1480179107A4F031
:101FF000B80184E00E94753D4AE050E0B8018AEBE8
:1020000095E10E946E386AE070E080E090E00E9406
:10201000E13C0F5F1F4FE5CF90933414809333144E
:1020200026960FB6F894DEBF0FBECDBFDF91CF91DD
:102030001F910F9108958F929F92AF92BF92CF926E
:10204000DF92EF92FF920F931F93CF93DF9300D015
:1020500000D000D0CDB7DEB780912114909122142A
:102060000E94BD0A4B015C0180911F1490912014C5
:102070000E94BD0A6B017C016AE87DE0CE010196F9
:102080000E94033ACE0101960E94E907CE01019613
:102090000E94913922E0B501A401CE0101960E946F
:1020A000E73ACE0101960E94E907CE0101960E940F
:1020B000913965E478E0CE0101960E94033ACE01A1
:1020C00001960E94E907CE0101960E9491396FE8BE
:1020D00071E0CE0101960E94033ACE0101960E9462
:1020E000E907CE0101960E94913922E0B701A601CD
:1020F000CE0101960E94E73ACE0101960E94E907BF
:10210000CE0101960E94913965E478E0CE010196F6
:102110000E94033ACE0101960E94E907CE01019682
:102120000E9491396DE376E0CE0101960E94033A58
:10213000CE0101960E94E907CE0101960E949139D5
:1021400062E475E184E690E00E941F0682E495E176
:102150000E943E3C70932E1460932D146CE375E145
:1021600082E890E00E941F068CE395E10E943E3CCD
:102170007093301460932F1481E090E09093871453
:10218000809386149093D1148093D0148CE4809320
:102190003C012A9A299A10923B0110923A0100912F
:1021A00031141091321480912F14909130148017B3
:1021B0009107A4F0B80183E00E94753D4AE050E029
:1021C000B8018AEB95E10E946E386FE070E080E024
:1021D00090E00E94E13C0F5F1F4FE5CF90933214D7
:1021E0008093311464E670E080E090E00E94E13C6E
:1021F000009133141091341480912D1490912E1469
:1022000080179107A4F0B80184E00E94753D4AE070
:1022100050E0B8018AEB95E10E946E386AE070E008
:1022200080E090E00E94E13C0F5F1F4FE5CF90936C
:1022300034148093331426960FB6F894DEBF0FBE85
:10224000CDBFDF91CF911F910F91FF90EF90DF9065
:10225000CF90BF90AF909F908F900895CF93DF93D2
:1022600083E580933C0170E060E084E00E94753D6E
:1022700064E670E080E090E00E94E13C6CE375E190
:1022800082E890E00E941F068CE395E10E943E3CAC
:102290007093301460932F14C0913114D091321484
:1022A000D7FD13C0BE0183E00E94753D4AE050E0B7
:1022B000BE018AEB95E10E946E3864E170E080E037
:1022C00090E00E94E13C2197EBCF109232141092E3
:1022D0003114109234141092331410928714109207
:1022E0008614DF91CF9108950F931F93CF93DF93BF
:1022F00000D000D000D0CDB7DEB768E476E0CE01E4
:1023000001960E94033ACE0101960E94E907CE0190
:1023100001960E94913962E475E184E690E00E94A2
:102320001F0682E495E10E943E3C70932E14609358
:102330002D1466E375E180EA90E00E941F0686E3B3
:1023400095E10E943E3C70932C1460932B1481E025
:1023500090E0909387148093861482E580933C01EB
:102360002A98299810923B0110923A010091311459
:102370001091321480912B1490912C148017910796
:10238000A4F0B80183E00E94753D4AE050E0B80136
:102390008AEB95E10E946E386AE070E080E090E0A0
:1023A0000E94E13C0F5F1F4FE5CF90933214809362
:1023B000311464E670E080E090E00E94E13C00911E
:1023C00033141091341480912D1490912E14801791
:1023D0009107A4F0B80184E00E94753D4AE050E006
:1023E000B8018AEB95E10E946E386AE070E080E007
:1023F00090E00E94E13C0F5F1F4FE5CF90933414B3
:102400008093331426960FB6F894DEBF0FBECDBF6F
:10241000DF91CF911F910F9108950F931F93CF9349
:10242000DF9300D000D000D0CDB7DEB763E576E013
:10243000CE0101960E94033ACE0101960E94E9075F
:10244000CE0101960E94913962E475E184E690E044
:102450000E941F0682E495E10E943E3C70932E1478
:1024600060932D1466E375E180EA90E00E941F06F8
:1024700086E395E10E943E3C70932C1460932B14EC
:1024800081E090E090938714809386148CE480938D
:102490003C012A9A299A10923B0110923A0100912C
:1024A00031141091321480912B1490912C148017B8
:1024B0009107A4F0B80183E00E94753D4AE050E026
:1024C000B8018AEB95E10E946E386AE070E080E026
:1024D00090E00E94E13C0F5F1F4FE5CF90933214D4
:1024E0008093311464E670E080E090E00E94E13C6B
:1024F000009133141091341480912D1490912E1466
:1025000080179107A4F0B80184E00E94753D4AE06D
:1025100050E0B8018AEB95E10E946E386AE070E005
:1025200080E090E00E94E13C0F5F1F4FE5CF909369
:1025300034148093331426960FB6F894DEBF0FBE82
:10254000CDBFDF91CF911F910F9108950F931F93EE
:10255000CF93DF9300D000D000D0CDB7DEB780910D
:10256000D6149091D714892B09F060C00091D4142F
:102570001091D5140130110509F058C08091BE1496
:102580009091BF14892B09F051C08091CA14909189
:10259000CB14892B09F04AC06DE576E0CE01019697
:1025A0000E94033ACE0101960E94E907CE010196EE
:1025B0000E9491391092A5141092A4141092A7149D
:1025C0001092A6141092A1141092A0141092A314A9
:1025D0001092A214109285141092841410929314E5
:1025E0001092921410928D1410928C1410928F14D9
:1025F00010928E1410929114109290141093C31490
:102600000093C21410929914109298141093C1144C
:102610000093C0141093BD140093BC1410935D1468
:1026200000935C1410936B1400936A148091D4147B
:102630009091D514892B09F060C00091D6141091A7
:10264000D7140130110509F058C08091BC14909145
:10265000BD14892B09F051C08091CA149091CB14FC
:10266000892B09F04AC060E776E0CE0101960E940E
:10267000033ACE0101960E94E907CE0101960E941D
:1026800091391092A5141092A4141092A7141092CC
:10269000A6141092A1141092A0141092A3141092D8
:1026A000A214109285141092841410929314109214
:1026B000921410928D1410928C1410928F14109208
:1026C0008E1410929114109290141093C3140093CE
:1026D000C21410929914109298141093C11400937C
:1026E000C0141093BF140093BE1410935B14009396
:1026F0005A1410936B1400936A142091D6143091DD
:10270000D7148091D4149091D5142115310509F076
:102710001CC18130910509F067C18091BE14909170
:10272000BF14892B09F043C08091CA149091CB1437
:1027300081309105E1F51092A5141092A414109225
:10274000A7141092A6141092A1141092A014109223
:10275000A3141092A2141092851410928414109253
:1027600093141092921410928D1410928C14109253
:102770008F1410928E1410929114109290149093C2
:10278000C3148093C21410929914109298149093C9
:10279000C1148093C0149093BB148093BA14909387
:1027A0005D1480935C1490936B1480936A148091F1
:1027B000BC149091BD14019781F48091DA1490912A
:1027C000DB14892B51F41092C3141092C21410928E
:1027D000C1141092C0140E941B108091BC149091DF
:1027E000BD14019729F58091DA149091DB148130A2
:1027F0009105F1F49093C3148093C2141092BD1408
:102800001092BC14909353148093521490936B14B1
:1028100080936A1462EA76E0CE0101960E94033A40
:10282000CE0101960E94E907CE0101960E949139DE
:102830008091BE149091BF140197F1F48091D81447
:102840009091D914892BC1F41092C3141092C21420
:102850001092C1141092C01467EB76E0CE0101967D
:102860000E94033ACE0101960E94E907CE0101962B
:102870000E9491390E946D0F8091BE149091BF14F7
:10288000019729F58091D8149091D9148130910540
:10289000F1F49093C3148093C2141092BF14109259
:1028A000BE14909353148093521490936B1480939E
:1028B0006A146BEC76E0CE0101960E94033ACE01D9
:1028C00001960E94E907CE0101960E9491398091FC
:1028D000DA149091DB14019769F50091D8141091E6
:1028E000D9140130110531F51093C3140093C214AB
:1028F0001092C1141092C0141092BD141092BC1406
:102900001092BF141092BE141093431400934214FB
:1029100060EE76E0CE0101960E94033ACE01019668
:102920000E94E907CE0101960E94913910936B1421
:1029300000936A1426960FB6F894DEBF0FBECDBF83
:10294000DF91CF911F910F910895892B09F02FCF1F
:102950002130310509F02BCF8091BC149091BD142A
:10296000892B09F024CF8091CA149091CB14813027
:10297000910509F01CCF1092A5141092A414109286
:10298000A7141092A6141092A1141092A0141092E1
:10299000A3141092A2141092851410928414109211
:1029A00093141092921410928D1410928C14109211
:1029B0008F1410928E141092911410929014909380
:1029C000C3148093C2141092991410929814909387
:1029D000C1148093C0149093B9148093B814909349
:1029E0005B1480935A14DFCE892B09F0E0CE01E00E
:1029F00010E01093C3140093C2141093C1140093F9
:102A0000C01464E876E0CE0101960E94033ACE013C
:102A100001960E94E907CE0101960E949139109219
:102A2000BD141092BC141092BF141092BE141093D7
:102A300047140093461410936B1400936A14B7CE96
:102A40000F931F93CF93DF9300D000D000D0CDB76A
:102A5000DEB78091B8149091B9140091BA14109116
:102A6000BB140130110509F4D8C1019709F0CAC19E
:102A70008091BA149091BB14892B09F056C0009133
:102A8000B8141091B9140130110509F04EC06DEC65
:102A900071E0CE0101960E94313BCE0101960E9469
:102AA000E907CE0101960E9491391092A514109267
:102AB000A4141092A7141092A6141092A1141092AC
:102AC000A0141092A3141092A214109293141092B6
:102AD000921410928D1410928C1410928F141092E4
:102AE0008E1410929114109290141092BD141092A2
:102AF000BC141092BF141092BE141092971410922E
:102B0000961410939514009394141092C314109279
:102B1000C21410928314109282141093C51400935F
:102B2000C4141092B9141092B81480919614909114
:102B300097140197F9F480918C1490918D14892B3E
:102B4000C9F48091901490919114892B99F48091FB
:102B5000C4149091C5148130910561F490938F1441
:102B600080938E14109293141092921410929714D2
:102B70001092961480918E1490918F142091941439
:102B8000309195142130310509F099C1009709F071
:102B900096C18091921490919314892B99F480910D
:102BA000C4149091C5148130910561F410928D1474
:102BB00010928C1490939114809390141092951409
:102BC0001092941480918E1490918F14019729F58E
:102BD0008091D8149091D9140197F9F40091C414FC
:102BE0001091C51401301105C1F464E077E0CE0105
:102BF00001960E94033ACE0101960E94E907CE0198
:102C000001960E9491390E942E1110928F141092F9
:102C10008E141093931400939214809192149091B7
:102C20009314019791F48091DA149091DB14892B1D
:102C300061F48091C4149091C514019731F41092FD
:102C4000C3141092C2140E941B1080919214909190
:102C500093140197B9F58091DA149091DB140197E0
:102C600089F50091C4141091C5140130110551F576
:102C700064E077E0CE0101960E94033ACE0101960E
:102C80000E94E907CE0101960E9491391093C31466
:102C90000093C21410929314109292141092C514BF
:102CA0001092C414109297141092961410929514C6
:102CB00010929414109353140093521410936B14A5
:102CC00000936A1480919014909191140197D1F41B
:102CD0008091DA149091DB14892BA1F48091C414B3
:102CE0009091C514019771F410928F1410928E1464
:102CF00010929314109292141092C3141092C21452
:102D00000E941B108091901490919114019729F5C5
:102D10008091DA149091DB140197F9F40091C414B6
:102D20001091C51401301105C1F40E942E1164E008
:102D300077E0CE0101960E94033ACE0101960E94EF
:102D4000E907CE0101960E94913910938D140093EA
:102D50008C14109291141092901480918C14909174
:102D60008D14019791F48091D8149091D914892BE6
:102D700061F48091C4149091C514019731F41092BC
:102D8000C3141092C2140E946D0F80918C14909104
:102D90008D140197B9F58091D8149091D9140197A9
:102DA00089F50091C4141091C5140130110551F535
:102DB00064E077E0CE0101960E94033ACE010196CD
:102DC0000E94E907CE0101960E9491391093C31425
:102DD0000093C21410928D1410928C141092C5148A
:102DE0001092C41410929714109296141092951485
:102DF00010929414109353140093521410936B1464
:102E000000936A1426960FB6F894DEBF0FBECDBFAE
:102E1000DF91CF911F910F910895892B09F028CE52
:102E200062EF71E0CE0101960E94313BCE01019626
:102E30000E94E907CE0101960E9491391092A514D3
:102E40001092A4141092A7141092A6141092A11418
:102E50001092A0141092A3141092A2141092931422
:102E60001092921410928D1410928C1410928F1450
:102E700010928E1410929114109290141092BD140E
:102E80001092BC141092BF141092BE141093971499
:102E90000093961410929514109294141092831427
:102EA000109282141092C3141092C2141093C5147D
:102EB0000093C4141092BB141092BA14D9CD019788
:102EC00009F080CE8091D8149091D914892B09F003
:102ED00079CE8091C4149091C514019709F072CEF7
:102EE00010928D1410928C141092911410929014D0
:102EF0000E946D0F67CE8091A4149091A514019744
:102F000011F58091D8149091D914892BE1F4809116
:102F1000841490918514892BB1F48091C014909100
:102F2000C114892B81F48091C4149091C514892B0C
:102F300051F410929914109298141092C314109294
:102F4000C2140E9474118091A4149091A514019749
:102F500049F58091D8149091D9148130910511F5DB
:102F60002091841430918514232BE1F42091C01416
:102F70003091C114232BB1F42091C4143091C514A5
:102F8000232B81F49093C3148093C2141092A51440
:102F90001092A414909353148093521490936B1432
:102FA00080936A148091A6149091A714019711F54B
:102FB0008091DA149091DB14892BE1F480918414D0
:102FC00090918514892BB1F48091C0149091C11413
:102FD000892B81F48091C4149091C514892B51F4EC
:102FE00010929914109298141092C3141092C21453
:102FF0000E940D128091A6149091A714019749F593
:103000008091DA149091DB148130910511F52091B3
:10301000841430918514232BE1F42091C014309155
:10302000C114232BB1F42091C4143091C514232B67
:1030300081F49093C3148093C2141092A714109239
:10304000A614909353148093521490936B1480930E
:103050006A148091A0149091A114019711F58091A8
:10306000D8149091D914892BE1F480918414909113
:103070008514892BB1F48091C0149091C114892BCF
:1030800081F48091C4149091C514892B51F410924D
:103090009914109298141092C3141092C2140E94A2
:1030A0006D0F8091A0149091A114019749F5809122
:1030B000D8149091D9148130910511F52091841480
:1030C00030918514232BE1F42091C0143091C11468
:1030D000232BB1F42091C4143091C514232B81F417
:1030E0009093C3148093C2141092A1141092A01450
:1030F000909353148093521490936B1480936A149A
:103100008091A2149091A314019711F58091DA1483
:103110009091DB14892BE1F48091841490918514B3
:10312000892BB1F48091C0149091C114892B81F442
:103130008091C4149091C514892B51F41092991464
:10314000109298141092C3141092C2140E941B1073
:103150008091A2149091A314019749F58091DA14FB
:103160009091DB148130910511F5209184143091F8
:103170008514232BE1F42091C0143091C114232B2A
:10318000B1F42091C4143091C514232B81F4909391
:10319000C3148093C2141092A3141092A21490939B
:1031A00053148093521490936B1480936A1408956F
:1031B0000F931F93CF93DF9300D000D000D0CDB7F3
:1031C000DEB700919E1410919F140130110509F093
:1031D00077C08091C0149091C114892B09F070C000
:1031E0001093C3140093C2140E942E1110938514DF
:1031F0000093841410929914109298141092C5148C
:103200001092C4141092A3141092A2141092A1143C
:103210001092A0141092A7141092A6141092A51444
:103220001092A41460E375E182ED90E00E941F0605
:103230006AE275E180EF90E00E941F066FE677E09A
:1032400080E395E10E94CA3B8823C1F060E877E003
:103250008AE295E10E94CA3B882381F01092C31450
:103260001092C214109393140093921410928D1420
:1032700010928C1410929F1410929E1460E877E0C4
:1032800080E395E10E94CA3B8823D1F06FE677E0A6
:103290008AE295E10E94CA3B882391F01092C31400
:1032A0001092C214109293141092921481E090E044
:1032B00090938D1480938C1410929F1410929E14EE
:1032C0008091921490919314019701F58091DA14F2
:1032D0009091DB14892BD1F4809184149091851402
:1032E0000197A1F41092C3141092C21464E177E024
:1032F000CE0101960E94033ACE0101960E94E90791
:10330000CE0101960E9491390E940D128091921473
:1033100090919314019799F58091DA149091DB14B0
:10332000019769F5009184141091851401301105FD
:1033300031F564E077E0CE0101960E94033ACE01B8
:1033400001960E94E907CE0101960E9491391093DF
:10335000C3140093C21410929314109292141092FA
:1033600085141092841410935114009350141093E8
:103370006B1400936A14109399140093981480911D
:103380008C1490918D14019701F58091D81490912F
:10339000D914892BD1F480918414909185140197CC
:1033A000A1F41092C3141092C21464E277E0CE012B
:1033B00001960E94033ACE0101960E94E907CE01D0
:1033C00001960E9491390E94741180918C14909101
:1033D0008D14019799F58091D8149091D914019783
:1033E00069F500918414109185140130110531F5AF
:1033F00064E077E0CE0101960E94033ACE01019687
:103400000E94E907CE0101960E9491391093C314DE
:103410000093C21410928D1410928C141092851483
:103420001092841410934F1400934E1410936B1445
:1034300000936A14109399140093981426960FB66B
:10344000F894DEBF0FBECDBFDF91CF911F910F91DA
:1034500008950F931F93CF93DF9300D000D000D037
:10346000CDB7DEB78091821490918314019781F4D7
:103470008091C4149091C514019751F465E377E0ED
:103480008AEB95E10E94BC3710928314109282144B
:1034900000918214109183140130110509F0D3C0FA
:1034A0008091C0149091C114892B09F0CCC08091F7
:1034B000841490918514892B09F0C5C08091C4149F
:1034C0009091C514892B09F0BEC0109299141092E6
:1034D000981460E375E182ED90E00E941F066AE2B5
:1034E00075E180EF90E00E941F066FE677E080E3D1
:1034F00095E10E94CA3B882309F44DC060E877E05B
:103500008AE295E10E94CA3B882309F444C01092E4
:10351000A5141092A4141092A7141092A61410923D
:10352000A1141092A0141092A3141092A21410923D
:1035300093141092921410928D1410928C14109275
:103540008F1410928E141092911410929014109265
:10355000BD141092BC141092BF141092BE1410939C
:10356000971400939614109295141092941410923C
:103570008314109282141092C3141092C2141093E8
:10358000C5140093C4141093671400936614109329
:103590006B1400936A1460E877E080E395E10E9481
:1035A000CA3B882309F44FC06FE677E08AE295E1D1
:1035B0000E94CA3B882309F446C01092A5141092B9
:1035C000A4141092A7141092A6141092A114109291
:1035D000A0141092A3141092A2141092931410929B
:1035E000921410928D1410928C1410928F141092C9
:1035F0008E1410929114109290141092BD14109287
:10360000BC141092BF141092BE1410929714109212
:10361000961481E090E09093951480939414109206
:10362000C3141092C21410928314109282149093B7
:10363000C5148093C4149093671480936614909378
:103640006B1480936A14809196149091971401974B
:10365000F9F480918C1490918D14892BC9F4809188
:10366000901490919114892B99F48091C4149091A5
:10367000C5148130910561F490938F1480938E145A
:103680001092931410929214109297141092961410
:1036900080918E1490918F142091941430919514F0
:1036A0002130310509F047C1009709F044C18091EC
:1036B000921490919314892B99F48091C414909151
:1036C000C5148130910561F410928D1410928C1400
:1036D00090939114809390141092951410929414D6
:1036E00080918E1490918F14019729F58091D814B0
:1036F0009091D9140197F9F40091C4141091C51454
:1037000001301105C1F464E077E0CE0101960E941A
:10371000033ACE0101960E94E907CE0101960E946C
:1037200091390E942E1110928F1410928E141093C2
:103730009314009392148091921490919314019792
:1037400091F48091DA149091DB14892B61F48091CB
:10375000C4149091C514019731F41092C3141092BF
:10376000C2140E941B10809192149091931401979F
:10377000B9F58091DA149091DB14019789F50091E5
:10378000C4141091C5140130110551F564E077E0BF
:10379000CE0101960E94033ACE0101960E94E907EC
:1037A000CE0101960E9491391093C3140093C21464
:1037B00010929314109292141092C5141092C41483
:1037C00010929714109296141092951410929414CB
:1037D000109353140093521410936B1400936A14B3
:1037E00080919014909191140197D1F48091DA1402
:1037F0009091DB14892BA1F48091C4149091C5148D
:10380000019771F410928F1410928E1410929314E9
:10381000109292141092C3141092C2140E941B10A2
:103820008091901490919114019729F58091DA1468
:103830009091DB140197F9F40091C4141091C51410
:1038400001301105C1F40E942E1164E077E0CE0131
:1038500001960E94033ACE0101960E94E907CE012B
:1038600001960E94913910938D1400938C1410923C
:1038700091141092901480918C1490918D14019752
:1038800091F48091D8149091D914892B61F480918E
:10389000C4149091C514019731F41092C31410927E
:1038A000C2140E946D0F80918C1490918D14019719
:1038B000B9F58091D8149091D914019789F50091A8
:1038C000C4141091C5140130110551F564E077E07E
:1038D000CE0101960E94033ACE0101960E94E907AB
:1038E000CE0101960E9491391093C3140093C21423
:1038F00010928D1410928C141092C5141092C4144E
:103900001092971410929614109295141092941489
:10391000109353140093521410936B1400936A1471
:1039200026960FB6F894DEBF0FBECDBFDF91CF91C4
:103930001F910F910895019709F0D2CE8091D8146C
:103940009091D914892B09F0CBCE8091C414909119
:10395000C514019709F0C4CE10928D1410928C14E6
:1039600010929114109290140E946D0FB9CE0F9383
:103970001F93CF93DF9300D000D000D0CDB7DEB738
:1039800000919814109199140130110509F052C05A
:103990008091841490918514892B09F04BC08091FB
:1039A000C0149091C114892B09F044C08091C414B3
:1039B0009091C514892BF1F560E375E182ED90E0FB
:1039C0000E941F066AE275E180EF90E00E941F06E8
:1039D0006FE677E080E395E10E94CA3B882381F09F
:1039E00060E877E08AE295E10E94CA3B882341F0D3
:1039F000109393140093921410928D1410928C14BF
:103A000060E877E080E395E10E94CA3B882391F06B
:103A10006FE677E08AE295E10E94CA3B882351F085
:103A2000109293141092921481E090E090938D1470
:103A300080938C148091921490919314019791F536
:103A40008091DA149091DB14892B61F580919814A0
:103A500090919914019731F5809184149091851477
:103A6000892B01F58091C0149091C114892BD1F458
:103A70008091C4149091C514892BA1F41092C314A1
:103A80001092C21462E577E0CE0101960E94033ADB
:103A9000CE0101960E94E907CE0101960E9491395C
:103AA0000E940D128091921490919314019759F5F0
:103AB0008091DA149091DB14019729F58091981484
:103AC0009091991481309105F1F4209184143091F2
:103AD0008514232BC1F42091C0143091C114232BE1
:103AE00091F42091C4143091C514232B61F4909368
:103AF000C3148093C21410929314109292141092D3
:103B00009F1410929E1480918C1490918D140197A3
:103B100091F58091D8149091D914892B61F58091F9
:103B2000981490919914019731F580918414909193
:103B30008514892B01F58091C0149091C114892BB3
:103B4000D1F48091C4149091C514892BA1F41092E2
:103B5000C3141092C21462E577E0CE0101960E9470
:103B6000033ACE0101960E94E907CE0101960E9418
:103B700091390E94741180918C1490918D14019749
:103B800099F58091D8149091D914019769F5809195
:103B90009814909199148130910531F520918414F5
:103BA00030918514232B01F52091C0143091C1145C
:103BB000232BD1F42091C4143091C514232BA1F4EC
:103BC0009093C3148093C21410928D1410928C148D
:103BD00010929F1410929E14909345148093441455
:103BE00090936B1480936A1426960FB6F894DEBFF8
:103BF0000FBECDBFDF91CF911F910F91089567E662
:103C000077E08FE695E10E94033A61E777E089E685
:103C100095E10E94033A20E04AE064E18AE495E1FC
:103C20000E94093469ED7CE082E495E10E94033A48
:103C300069ED7CE08CE395E10E94033A69ED7CE05C
:103C400086E395E10E94033A69ED7CE080E395E12B
:103C50000E94033A69ED7CE08AE295E10E94033A12
:103C600069ED7CE084E295E10E94033A69ED7CE035
:103C70008EE195E10E94033A69ED7CE088E195E1EF
:103C80000E94033A69ED7CE082E195E10E94033AEB
:103C900066E777E08CE095E10E94033A66E777E01B
:103CA00086E095E10E94033A66E777E080E095E1DF
:103CB0000E94033A6FE677E08AEF94E10E94033AAC
:103CC00060E877E084EF94E10E94033A6AE777E0E6
:103CD0008EEE94E10E94033A6EE777E088EE94E17D
:103CE0000E94033A6FE677E082EE94E10E94033A85
:103CF00062E877E08CED94E10E94033A69ED7CE0A4
:103D000086E394E10E94033A69ED7CE083E294E16A
:103D10000E94033A0E94B03C60930D1470930E14FD
:103D200080930F14909310140E94B03C6093091478
:103D300070930A1480930B1490930C140E94B03C5F
:103D400060930514709306148093071490930814DD
:103D50000E94B03C6093011470930214809303148A
:103D6000909304140E94B03C6093FD137093FE1373
:103D70008093FF13909300140E94B03C6093F9135A
:103D80007093FA138093FB139093FC130E94B03C42
:103D90006093F5137093F6138093F7139093F813D1
:103DA0000E94B03C6093F1137093F2138093F3136D
:103DB0009093F4130E94B03C6093ED137093EE1354
:103DC0008093EF139093F0130E94B03C6093E9133B
:103DD0007093EA138093EB139093EC130E94B03C22
:103DE0006093E5137093E6138093E7139093E813C1
:103DF00040910601509107016091080170910901FD
:103E000027E084ED92E10C94DD3483E294E10E949A
:103E1000913986E394E10E9491398CED94E10E94FE
:103E2000913982EE94E10E94913988EE94E10E94EA
:103E300091398EEE94E10E94913984EF94E10E94D1
:103E400091398AEF94E10E94913980E095E10E94D6
:103E5000913986E095E10E9491398CE095E10E94CC
:103E6000913982E195E10E94913988E195E10E94C2
:103E700091398EE195E10E94913984E295E10E94A9
:103E800091398AE295E10E94913980E395E10E949F
:103E9000913986E395E10E9491398CE395E10E9486
:103EA000913982E495E10E9491398AE495E10E947A
:103EB000AE3389E695E10E9491398FE695E10C9445
:103EC00091398F929F92AF92BF92CF92DF92EF92F1
:103ED000FF920F931F93CF93DF93CDB7DEB7DA95A1
:103EE0000FB6F894DEBF0FBECDBF0E94B03C4B01B1
:103EF0005C01E5EEF2E180E091E0DF019C011D92C2
:103F000021503040E1F79E012B5E3E4FCD5EDE4FEB
:103F100048815981C351D14060E071E0CE010196E2
:103F20000E94EB45BE016F5F7F4F8AE495E10E94DE
:103F30009737BE016F5F7F4F8AEB95E10E949737FD
:103F400010E000E0CF5EDE4FC880D980C151D14083
:103F50000D2C000CEE08FF088AE495E10E94DD328A
:103F600018161906CCF48AE495E10E9447320F3FF7
:103F7000110534F4F801EB51FD4E80830F5F1F4FA4
:103F8000682F8AEB95E10E949F3762E070E080E045
:103F900090E00E94E13CE0CFC15FDE4F6881798113
:103FA000CF50D14085EE92E10E943A45892B01F530
:103FB0000E94B03C681979098A099B096C157D0536
:103FC0008E059F0548F290E080E0D3950FB6F894F7
:103FD000DEBF0FBECDBFDF91CF911F910F91FF903C
:103FE000EF90DF90CF90BF90AF909F908F9008950B
:103FF00081E090E0EACF0F931F93CF93DF93CDB78B
:10400000DEB72C970FB6F894DEBF0FBECDBF6AE8BF
:1040100077E0CE0101960E94033ACE0101960E94FC
:10402000E907CE0101960E9491398BEA97E09F93B0
:104030008F931F9284E68F9380EB97E09F938F93EB
:104040000E94611F0F900F900F900F900F900F9094
:10405000892B09F448C281E08093E41288EB97E051
:104060009F938F9303E00F9318EE1F9386EC97E0D6
:104070009F938F930E94611F84ED97E09F938F938E
:104080000F931F938CEE97E09F938F930E94611F75
:104090008FEF97E09F938F930F931F9389E098E0A2
:1040A0009F938F930E94611F0FB6F894DEBF0FBEDF
:1040B000CDBF892BC9F16CEE72E1CE0107960E944B
:1040C000033A24E030E050E040E0BE01695F7F4FFA
:1040D000CE0101960E94F83BCE0101960E94543C0D
:1040E0000E94743F70932A146093291460E178E071
:1040F0008AEB95E10E9497376091291470912A14F8
:104100004AE050E08AEB95E10E94673864E278E08B
:104110008AEB95E10E94BC37CE0101960E9491394D
:10412000CE0107960E94913988E298E09F938F9381
:1041300003E00F9318EE1F9389E398E09F938F930A
:104140000E94611F87E498E09F938F930F931F93C2
:1041500085E598E09F938F930E94611F80E698E029
:104160009F938F930F931F9388E798E09F938F936C
:104170000E94611F8EE798E09F938F930F931F9388
:1041800086E998E09F938F930E94611F8CE998E0E5
:104190009F938F930F931F9384EB98E09F938F933C
:1041A0000E94611F8AEB98E09F938F930F931F9358
:1041B00082ED98E09F938F930E94611F0FB6F89451
:1041C000DEBF0FBECDBF88ED98E09F938F930F9316
:1041D0001F9380EF98E09F938F930E94611F86EF5B
:1041E00098E09F938F930F931F938EE099E09F9396
:1041F0008F930E94611F84E199E09F938F930F93A7
:104200001F938CE299E09F938F930E94611F82E33A
:1042100099E09F938F930F931F9388E499E09F9366
:104220008F930E94611F8FE499E09F938F930F9368
:104230001F9387E699E09F938F930E94611F8EE6FC
:1042400099E09F938F930F931F9386E899E09F9334
:104250008F930E94611F0FB6F894DEBF0FBECDBFD3
:104260008DE899E09F938F930F931F9385EA99E0D0
:104270009F938F930E94611F8CEA99E09F938F9385
:104280000F931F9380EC99E09F938F930E94611F7F
:1042900087EC99E09F938F930F931F938FED99E095
:1042A0009F938F930E94611F86EE99E09F938F9357
:1042B0000F931F9382EF99E09F938F930E94611F4A
:1042C0008BEF99E09F938F930F931F938CE09AE06D
:1042D0009F938F930E94611F85E19AE09F938F9334
:1042E0000F931F9383E29AE09F938F930E94611F25
:1042F0000FB6F894DEBF0FBECDBF8EE29AE09F935B
:104300008F930F931F9381E69AE09F938F930E9460
:10431000611F8EE69AE09F938F930F931F9380E81F
:104320009AE09F938F930E94611F8AE89AE09F937F
:104330008F930F931F9386E99AE09F938F930E9428
:10434000611F8FE99AE09F938F930F931F9386EBE2
:104350009AE09F938F930E94611F8AEC9AE09F934B
:104360008F930F931F9387ED9AE09F938F930E94F3
:10437000611F81EE9AE09F938F930F931F938DEEB1
:104380009AE09F938F930E94611F0FB6F894DEBF4F
:104390000FBECDBF86EF9AE09F938F930F931F932D
:1043A00085E09BE09F938F930E94611F82E19BE0D9
:1043B0009F938F930F931F9381E29BE09F938F9323
:1043C0000E94611F8EE29BE09F938F930F931F9338
:1043D00080E49BE09F938F930E94611F60E57BE0E8
:1043E000CE0101960E94033ACE0101960E94E90790
:1043F000CE0101960E94913987E69BE09F938F93AF
:104400000F931F938FE69BE09F938F930E94611FF2
:1044100069E77BE0CE0101960E94033ACE01019646
:104420000E94E907CE0101960E9491398DE79BE039
:104430009F938F930F931F9386E89BE09F938F9397
:104440000E94611F0FB6F894DEBF0FBECDBF892B4F
:10445000A9F16BEE72E1CE0107960E94033A24E0C7
:1044600030E050E040E0BE01695F7F4FCE01019631
:104470000E94F83BCE0101960E94543C20E030E0BF
:104480004AE754E40E9461400E94743F70933901EE
:10449000609338014AE050E08AEB95E10E9467386A
:1044A0006CE87BE08AEB95E10E94BC37CE01019677
:1044B0000E949139CE0107960E94913981E0809344
:1044C000E3125E9A81E090E09093C9148093C8143F
:1044D0002C960FB6F894DEBF0FBECDBFDF91CF9103
:1044E0001F910F9108951092E41260E97BE0CE01D4
:1044F00001960E94033ACE0101960E94E907CE017F
:1045000001960E94913984E690E0A0E0B0E08093AB
:104510001A0190931B01A0931C01B0931D011092EE
:10452000C9141092C814D4CF8F929F92AF92BF92A9
:10453000CF92DF92EF92FF920F931F93CF93DF936F
:1045400000D000D000D0CDB7DEB78091E412882330
:1045500009F4A6C08091E312882309F4A1C065EA9A
:104560007BE0CE0101960E94033ACE0101960E94A3
:10457000E907CE0101960E9491390E94B03C4B019F
:104580005C018EEC9BE09F938F9307E20F9310E109
:104590001F9388ED9BE09F938F930E94611F7C0186
:1045A0000E94B03C0F900F900F900F900F900F90C3
:1045B000EF2809F4ABC0681979098A099B096131B0
:1045C00077428105910508F0A1C01092E3126EEECA
:1045D0007BE0CE0101960E94033ACE0101960E9433
:1045E000E907CE0101960E94913968EE73E080E000
:1045F00090E00E94E13C0E94B03C6B017C0188E1AC
:104600009CE09F938F930F931F9384E29CE09F9372
:104610008F930E94611F8C010E94B03C0F900F90FD
:104620000F900F900F900F90012B09F44CC06C1954
:104630007D098E099F09613177428105910508F056
:1046400042C00E94790160E37CE0CE0101960E94A5
:10465000033ACE0101960E94E907CE0101960E941D
:10466000913987E69CE09F938F9303E10F9318E8BD
:104670001F9383E79CE09F938F930E94611F88E7BD
:104680009CE09F938F930F931F9381E89CE09F93EF
:104690008F930E94611F0FB6F894DEBF0FBECDBF8F
:1046A00026960FB6F894DEBF0FBECDBFDF91CF9137
:1046B0001F910F91FF90EF90DF90CF90BF90AF9040
:1046C0009F908F90089567E87CE0CE0101960E944C
:1046D000033ACE0101960E94E907CE0101960E949D
:1046E000913988E79CE09F938F9383E18F9388E8CB
:1046F0008F9381E89CE09F938F930E94611F0F909E
:104700000F900F900F900F900F90CACF87E69BE00D
:104710009F938F9383E08F9388EE8F9389EB9CE038
:104720009F938F930E94611F65EC7CE0CE01019600
:104730000E94033ACE0101960E94E907CE0101963C
:104740000E949139DCCF0F931F93CF93DF9300D05A
:1047500000D000D0CDB7DEB726E040E855E260E0FB
:1047600070E08AEB95E10E945E3668EC70E086E3CB
:1047700094E10E94C53940E855E260E070E08AE4C7
:1047800095E10E9434346AED7CE0CE0101960E94EE
:10479000033ACE0101960E94E907CE0101960E94DC
:1047A000913962EF7CE0CE0101960E94033ACE017E
:1047B00001960E94E907CE0101960E94913984B1C9
:1047C0008E6184B981B1887781B987B1806C87B9EE
:1047D0008AB18F7C8AB98BB180638BB983E090E01A
:1047E0005E9A2FEF31EE44E0215030404040E1F737
:1047F00000C000005E982FEF31EE44E021503040C1
:104800004040E1F700C00000019751F76AEF7CE0FB
:10481000CE0101960E94033ACE0101960E94E9075B
:10482000CE0101960E94913964E17DE0CE010196AE
:104830000E94033A6FE675E1CE0101960E94793B32
:10484000BC018AEB95E10E94AA37CE0101960E9435
:1048500091396FE17DE0CE0101960E94033A69E64D
:1048600075E1CE0101960E94793BBC018AEB95E18E
:104870000E94AA37CE0101960E9491390E949306A8
:104880000E94FB1F0E9494226091380170913901AF
:1048900010E000E02AE939E941E251E484ED92E1D7
:1048A0000E94E6346AE070E080E090E00E94E13C23
:1048B00060913801709139014AE050E08AEB95E14E
:1048C0000E946E386AE27DE08AEB95E10E9497379C
:1048D0000E94C00D4AE050E0BC018AEB95E10E94C5
:1048E00067386EE37DE08AEB95E10E9497370E947E
:1048F0009E0D4AE050E0BC018AEB95E10E946738CA
:1049000063E47DE08AEB95E10E94BC370E94330F9F
:104910008091CC149091CD14019731F40E94DC0A5F
:104920001092CD141092CC140E94C30C66E47DE06A
:104930008AEB95E10E9497370E94B0344AE050E03C
:10494000BC018AEB95E10E946E380E94280D2696E4
:104950000FB6F894DEBF0FBECDBFDF91CF911F9190
:104960000F910895CF93DF9300D000D000D0CDB742
:10497000DEB762E57DE0CE0101960E94033ACE01EA
:1049800001960E94E907CE0101960E9491398AE6BC
:104990009DE09F938F9383E18F9388E88F9389E7BE
:1049A0009DE09F938F930E94611F0F900F900F9037
:1049B0000F900F900F90892BC1F065E87DE085EE98
:1049C00092E10E943A456CE87DE0892B11F466E99A
:1049D0007DE0CE0101960E94033ACE0101960E942D
:1049E000E907CE0101960E94913926960FB6F894F8
:1049F000DEBF0FBECDBFDF91CF9108950F931F9300
:104A0000CF93DF93CDB7DEB7C658D1090FB6F89470
:104A1000DEBF0FBECDBF67EA7DE08E010F5F1F4F87
:104A2000C8010E94033AC8010E94E907C8010E9418
:104A3000913962E475E184E690E00E941F0682E409
:104A400095E10E943E3C60932D1470932E147F9349
:104A50006F9385EB9DE09F938F931F930F930E941D
:104A600099451F930F9387E28F9380E18F9384E2A0
:104A70009CE09F938F930E94611F0FB6F894DEBF56
:104A80000FBECDBF892B71F00E940508CA57DF4FBA
:104A90000FB6F894DEBF0FBECDBFDF91CF911F914F
:104AA0000F91089564EC7DE0CE018F579F4F0E94D7
:104AB000033ACE018F579F4F0E94E907CE018F57CF
:104AC0009F4F0E949139E2CF0F931F93CF93DF93B3
:104AD000CDB7DEB7C658D1090FB6F894DEBF0FBE0A
:104AE000CDBF65ED7DE08E010F5F1F4FC8010E94B5
:104AF000033AC8010E94E907C8010E9491396CE39A
:104B000075E182E890E00E941F068CE395E10E9427
:104B10003E3C60932F14709330147F936F9383EE19
:104B20009DE09F938F931F930F930E9499451F932E
:104B30000F9387E28F9380E18F9384E29CE09F93B1
:104B40008F930E94611F0FB6F894DEBF0FBECDBFDA
:104B5000892B71F00E940508CA57DF4F0FB6F894F1
:104B6000DEBF0FBECDBFDF91CF911F910F91089592
:104B700064EC7DE0CE018F579F4F0E94033ACE0137
:104B80008F579F4F0E94E907CE018F579F4F0E947A
:104B90009139E2CFCF93DF9300D000D000D0CDB7D2
:104BA000DEB78091B6149091B7140197A1F40E94DA
:104BB000FE241092B7141092B61462EF7DE0CE017D
:104BC00001960E94033ACE0101960E94E907CE01A8
:104BD00001960E9491398091B4149091B514019777
:104BE000A1F40E9464251092B5141092B41461E0EF
:104BF0007EE0CE0101960E94033ACE0101960E940A
:104C0000E907CE0101960E94913980917C14909120
:104C10007D14019731F40E94D30810927D141092F4
:104C20007C148091B2149091B3140197A1F40E9466
:104C300046081092B3141092B21460E17EE0CE01E7
:104C400001960E94033ACE0101960E94E907CE0127
:104C500001960E9491398091B0149091B1140197FE
:104C6000A1F40E9475081092B1141092B01468E279
:104C70007EE0CE0101960E94033ACE0101960E9489
:104C8000E907CE0101960E9491398091AE1490916E
:104C9000AF140197A1F40E94A4081092AF141092CF
:104CA000AE1463E47EE0CE0101960E94033ACE0189
:104CB00001960E94E907CE0101960E9491398091E8
:104CC000AC149091AD140197A1F40E9416091092B2
:104CD000AD141092AC146CE57EE0CE0101960E94FA
:104CE000033ACE0101960E94E907CE0101960E9487
:104CF00091398091AA149091AB140197A1F40E946C
:104D000045091092AB141092AA1464E77EE0CE011C
:104D100001960E94033ACE0101960E94E907CE0156
:104D200001960E9491398091A8149091A91401973D
:104D3000A1F40E9474091092A9141092A8146FE8AB
:104D40007EE0CE0101960E94033ACE0101960E94B8
:104D5000E907CE0101960E94913980917E149091CD
:104D60007F14019731F40E94A30910927F141092CE
:104D70007E1480917A1490917B14019731F40E94F3
:104D8000E60910927B1410927A1480911914909174
:104D90001A14019709F042C06AE777E0CE01019644
:104DA0000E94033ABE016F5F7F4F8EE091E00E9448
:104DB000DC05CE0101960E94913968EA7EE0CE01C1
:104DC00001960E94033ACE0101960E94E907CE01A6
:104DD00001960E94913960EE73E0CE0101960E9427
:104DE000033ABE016F5F7F4F8CE291E00E94DC05C9
:104DF000CE0101960E94913969EC7EE0CE010196C8
:104E00000E94033ACE0101960E94E907CE01019665
:104E10000E94913910921A1410921914809117144B
:104E200090911814019709F042C06AE777E0CE012B
:104E300001960E94033ABE016F5F7F4F8EE091E0C2
:104E40000E94DC05CE0101960E94913964EF7EE05C
:104E5000CE0101960E94033ACE0101960E94E90715
:104E6000CE0101960E9491396EE777E0CE0101965E
:104E70000E94033ABE016F5F7F4F8CE291E00E9477
:104E8000DC05CE0101960E94913965E17FE0CE01FB
:104E900001960E94033ACE0101960E94E907CE01D5
:104EA00001960E94913910921814109217142696A8
:104EB0000FB6F894DEBF0FBECDBFDF91CF9108953E
:104EC000CF92DF92EF92FF920F931F93CF93DF93D6
:104ED00000D000D000D0CDB7DEB70E94B03C20910A
:104EE000E412222309F43FC000910D1410910E1416
:104EF00020910F14309110146B017C01C01AD10A5B
:104F0000E20AF30A00913201109133012091340139
:104F1000309135010C151D052E053F0520F56093D8
:104F20000D1470930E1480930F14909310148091AD
:104F3000E312811118C089ED9CE09F938F9381E06B
:104F40008F9384EF8F9380E49FE09F938F930E94D1
:104F5000611F0F900F900F900F900F900F90892B63
:104F600089F00E94790126960FB6F894DEBF0FBE35
:104F7000CDBFDF91CF911F910F91FF90EF90DF9008
:104F8000CF90089566E47FE0CE0101960E94033A37
:104F9000CE0101960E94E907CE0101960E94913947
:104FA000E2CFEF92FF920F931F93CF93DF93CDB792
:104FB000DEB7C658D1090FB6F894DEBF0FBECDBF1D
:104FC0000E949E0D7C0161E57FE08E010F5F1F4F07
:104FD000C8010E94033AC8010E94E907C8010E9463
:104FE00091394AE0B701C8010E94223AC8010E94E3
:104FF000E907C8010E949139FF92EF9280E69FE095
:105000009F938F931F930F930E9499451F930F9324
:1050100087E28F9380E18F938DE69FE09F938F933C
:105020000E94611F0FB6F894DEBF0FBECDBF6BE0CC
:105030007EE0892B11F464EC7DE0CE018F579F4F09
:105040000E94033ACE018F579F4F0E94E907CE017D
:105050008F579F4F0E9491390091C8141091C91425
:105060000130110509F04CC080913E1490913F141D
:10507000892B09F045C03AE0E316F1040CF040C07A
:1050800084ED92E10E946C354AE050E0682F8AEB93
:1050900095E10E948D3868E77FE0CE018F579F4FE2
:1050A0000E94033ACE018F579F4F0E94E907CE011D
:1050B0008F579F4F0E949139109281141092801443
:1050C0001092C5141092C4141092BD141092BC1406
:1050D0001092BF141092BE141092A1141092A0143A
:1050E0001092A3141092A21410939F1400939E1474
:1050F00010934D1400934C1410933F1400933E14DE
:105100008091C8149091C914892B91F51E141F0425
:105110007CF16DEC7FE0CE018F579F4F0E94033AE8
:10512000CE018F579F4F0E94E907CE018F579F4FA7
:105130000E94913910928114109280141092BD1423
:105140001092BC141092BF141092BE1481E090E033
:105150009093C3148093C21410924914109248146F
:10516000109259141092581490934D1480934C142B
:10517000CA57DF4F0FB6F894DEBF0FBECDBFDF9129
:10518000CF911F910F91FF90EF900895CF92DF92F2
:10519000EF92FF920F931F930E94B03C2091E41274
:1051A000222359F10091051410910614209107143F
:1051B000309108146B017C01C01AD10AE20AF30A8B
:1051C00000912A0110912B0120912C0130912D0189
:1051D0000C151D052E053F0580F460930514709392
:1051E000061480930714909308140E94D1270E94FC
:1051F000B22410923F1410923E141F910F91FF9011
:10520000EF90DF90CF9008950F931F93CF93DF938C
:10521000CDB7DEB7CA58D1090FB6F894DEBF0FBEBE
:10522000CDBF809120148F9380911F148F93809114
:1052300022148F93809121148F9381E290E19F93A8
:105240008F938E010F5F1F4F1F930F930E949945FD
:105250001F930F9387E28F9380E18F938DE69FE0FA
:105260009F938F930E94611F0FB6F894DEBF0FBE0D
:10527000CDBF6BE07EE0892B11F464EC7DE0CE01C4
:105280008F579F4F0E94033ACE018F579F4F0E9426
:10529000E907CE018F579F4F0E9491390E94B03C81
:1052A0000091D0121091D1122091D2123091D312CC
:1052B000601B710B820B930B683E73408105910557
:1052C00008F441C00E94B03C6093D0127093D11298
:1052D0008093D2129093D3128FEF97E09F938F9386
:1052E00083E08F9388EE8F9389E098E09F938F936C
:1052F0000E94611F0F900F900F900F900F900F90D2
:10530000892B09F144E050E06BEE72E1CE018F573A
:105310009F4F0E942B45CB57DF4F1882C558D04076
:10532000CE018F579F4F0E94C04420E030E04AE7F3
:1053300054E40E946140AB01BC0122E030E08AEB02
:1053400095E10E947E39C657DF4F0FB6F894DEBF55
:105350000FBECDBFDF91CF911F910F9108958F9216
:105360009F92AF92BF92CF92DF92EF92FF920F93F4
:105370001F93CF93DF93CDB7DEB7C658D1090FB6D1
:10538000F894DEBF0FBECDBF809170149091711460
:105390000197E9F58E010F571F4F69E675E1C801C6
:1053A0000E94C33A1F930F9384E390E19F938F93DE
:1053B0009E012F5F3F4F79013F932F930E949945A4
:1053C000C8010E949139FF92EF9287E28F9380E1AA
:1053D0008F938DE69FE09F938F930E94611F0FB67E
:1053E000F894DEBF0FBECDBF6BE07EE0892B11F4D9
:1053F00064EC7DE0C8010E94033AC8010E94E907FD
:10540000C8010E9491391092711410927014809109
:105410006C1490916D140197E1F58E010F571F4F99
:1054200062E175E1C8010E94C33A1F930F9382E4C1
:1054300090E19F938F93CE0101967C019F938F9370
:105440000E949945C8010E949139FF92EF9287E22C
:105450008F9380E18F938DE69FE09F938F930E94BF
:10546000611F0FB6F894DEBF0FBECDBF6BE07EE0CC
:10547000892B11F464EC7DE0C8010E94033AC80155
:105480000E94E907C8010E94913910926D14109290
:105490006C140E94B03C00910114109102142091F0
:1054A0000314309104146B017C01C01AD10AE20A82
:1054B000F30A0091260110912701209128013091D3
:1054C00029010C151D052E053F0508F06EC06093DF
:1054D000011470930214809303149093041460E3F6
:1054E00075E182ED90E00E941F066AE275E180EFAF
:1054F00090E00E941F066FE677E080E395E10E944E
:10550000CA3B882329F160E877E08AE295E10E94AE
:10551000CA3B8823E9F08091DA149091DB14813042
:105520009105B1F4909369148093681490933D149D
:1055300080933C1460E570E1CE0101960E94033A2D
:10554000CE0101960E94E907CE0101960E94913991
:1055500060E877E080E395E10E94CA3B882329F167
:105560006FE677E08AE295E10E94CA3B8823E9F082
:105570008091D8149091D91481309105B1F4909311
:1055800069148093681490933D1480933C1460E5F3
:1055900070E1CE0101960E94033ACE0101960E946D
:1055A000E907CE0101960E94913900916A14109189
:1055B0006B140130110569F50E94B03CC0900914CC
:1055C000D0900A14E0900B14F0900C144B015C0185
:1055D0008C189D08AE08BF08C0902E01D0902F01F6
:1055E000E0903001F09031018C149D04AE04BF04B2
:1055F00080F06093091470930A1480930B149093B5
:105600000C14109369140093681410926B14109288
:105610006A148091681490916914019709F0AEC4DE
:1056200080914C1490914D140197E1F568E570E17B
:10563000CE0101960E94033ACE0101960E94E9072D
:10564000CE0101960E94913985E690E19F938F9358
:1056500087E28F9380E18F9384E29CE09F938F9306
:105660000E94611F0F900F900F900F900F900F905E
:105670006BE07EE0892B11F464EC7DE0CE010196B5
:105680000E94033ACE0101960E94E907CE010196DD
:105690000E94913910924D1410924C14109269147A
:1056A0001092681480914814909149140197E1F583
:1056B00062E770E1CE0101960E94033ACE010196A5
:1056C0000E94E907CE0101960E9491398FE790E18F
:1056D0009F938F9387E28F9380E18F9384E29CE086
:1056E0009F938F930E94611F0F900F900F900F90C8
:1056F0000F900F906BE07EE0892B11F464EC7DE05D
:10570000CE0101960E94033ACE0101960E94E9075C
:10571000CE0101960E9491391092491410924814BA
:105720001092691410926814809140149091411461
:105730000197E1F56CE870E1CE0101960E94033A11
:10574000CE0101960E94E907CE0101960E9491398F
:1057500084EA90E19F938F9387E28F9380E18F9308
:1057600084E29CE09F938F930E94611F0F900F90A3
:105770000F900F900F900F906BE07EE0892B11F44B
:1057800064EC7DE0CE0101960E94033ACE010196C1
:105790000E94E907CE0101960E94913910924114AE
:1057A00010924014109269141092681480914A1457
:1057B00090914B140197E1F561EB70E1CE010196F8
:1057C0000E94033ACE0101960E94E907CE0101969C
:1057D0000E94913984EC90E19F938F9387E28F939D
:1057E00080E18F9384E29CE09F938F930E94611FDE
:1057F0000F900F900F900F900F900F906BE07EE046
:10580000892B11F464EC7DE0CE0101960E94033AED
:10581000CE0101960E94E907CE0101960E949139BE
:1058200010924B1410924A1410926914109268143A
:1058300080914614909147140197E1F561ED70E174
:10584000CE0101960E94033ACE0101960E94E9071B
:10585000CE0101960E9491398FED90E19F938F9335
:1058600087E28F9380E18F938DE69FE09F938F93E4
:105870000E94611F0F900F900F900F900F900F904C
:105880006BE07EE0892B11F464EC7DE0CE010196A3
:105890000E94033ACE0101960E94E907CE010196CB
:1058A0000E94913910924714109246141092691474
:1058B0001092681480914214909143140197E1F57D
:1058C0006BEE70E1CE0101960E94033ACE01019683
:1058D0000E94E907CE0101960E94913989EF90E17B
:1058E0009F938F9387E28F9380E18F938DE69FE064
:1058F0009F938F930E94611F0F900F900F900F90B6
:105900000F900F906BE07EE0892B11F464EC7DE04A
:10591000CE0101960E94033ACE0101960E94E9074A
:10592000CE0101960E9491391092431410924214B4
:105930001092691410926814809166149091671403
:105940000197E1F565E071E1CE0101960E94033A0D
:10595000CE0101960E94E907CE0101960E9491397D
:105960008EE191E19F938F9387E28F9380E18F93F4
:1059700084E29CE09F938F930E94611F0F900F9091
:105980000F900F900F900F906BE07EE0892B11F439
:1059900064EC7DE0CE0101960E94033ACE010196AF
:1059A0000E94E907CE0101960E9491391092671476
:1059B0001092661410926914109268148091641405
:1059C000909165140197E1F56BE271E1CE010196CA
:1059D0000E94033ACE0101960E94E907CE0101968A
:1059E0000E94913985E491E19F938F9387E28F9391
:1059F00080E18F9384E29CE09F938F930E94611FCC
:105A00000F900F900F900F900F900F906BE07EE033
:105A1000892B11F464EC7DE0CE0101960E94033ADB
:105A2000CE0101960E94E907CE0101960E949139AC
:105A300010926514109264141092691410926814F4
:105A400080916214909163140197E1F562E571E130
:105A5000CE0101960E94033ACE0101960E94E90709
:105A6000CE0101960E94913981E691E19F938F9337
:105A700087E28F9380E18F938DE69FE09F938F93D2
:105A80000E94611F0F900F900F900F900F900F903A
:105A90006BE07EE0892B11F464EC7DE0CE01019691
:105AA0000E94033ACE0101960E94E907CE010196B9
:105AB0000E9491391092631410926214109269142A
:105AC000109268148091601490916114019771F59F
:105AD0008DE691E19F938F9387E28F9380E18F937F
